{
  "contractName": "Conference",
  "abi": [
    {
      "constant": true,
      "inputs": [],
      "name": "numOfAdmins",
      "outputs": [
        {
          "name": "",
          "type": "uint256"
        }
      ],
      "payable": false,
      "stateMutability": "view",
      "type": "function"
    },
    {
      "constant": false,
      "inputs": [
        {
          "name": "oldAdmins",
          "type": "address[]"
        }
      ],
      "name": "revoke",
      "outputs": [],
      "payable": false,
      "stateMutability": "nonpayable",
      "type": "function"
    },
    {
      "constant": true,
      "inputs": [
        {
          "name": "",
          "type": "address"
        }
      ],
      "name": "participants",
      "outputs": [
        {
          "name": "addr",
          "type": "address"
        },
        {
          "name": "attended",
          "type": "bool"
        },
        {
          "name": "paid",
          "type": "bool"
        }
      ],
      "payable": false,
      "stateMutability": "view",
      "type": "function"
    },
    {
      "constant": true,
      "inputs": [],
      "name": "ended",
      "outputs": [
        {
          "name": "",
          "type": "bool"
        }
      ],
      "payable": false,
      "stateMutability": "view",
      "type": "function"
    },
    {
      "constant": true,
      "inputs": [
        {
          "name": "",
          "type": "uint256"
        }
      ],
      "name": "admins",
      "outputs": [
        {
          "name": "",
          "type": "address"
        }
      ],
      "payable": false,
      "stateMutability": "view",
      "type": "function"
    },
    {
      "constant": false,
      "inputs": [
        {
          "name": "newAdmins",
          "type": "address[]"
        }
      ],
      "name": "grant",
      "outputs": [],
      "payable": false,
      "stateMutability": "nonpayable",
      "type": "function"
    },
    {
      "constant": true,
      "inputs": [
        {
          "name": "admin",
          "type": "address"
        }
      ],
      "name": "isAdmin",
      "outputs": [
        {
          "name": "",
          "type": "bool"
        }
      ],
      "payable": false,
      "stateMutability": "view",
      "type": "function"
    },
    {
      "constant": true,
      "inputs": [],
      "name": "getAdmins",
      "outputs": [
        {
          "name": "",
          "type": "address[]"
        }
      ],
      "payable": false,
      "stateMutability": "view",
      "type": "function"
    },
    {
      "constant": true,
      "inputs": [],
      "name": "endedAt",
      "outputs": [
        {
          "name": "",
          "type": "uint256"
        }
      ],
      "payable": false,
      "stateMutability": "view",
      "type": "function"
    },
    {
      "constant": true,
      "inputs": [],
      "name": "payoutAmount",
      "outputs": [
        {
          "name": "",
          "type": "uint256"
        }
      ],
      "payable": false,
      "stateMutability": "view",
      "type": "function"
    },
    {
      "constant": true,
      "inputs": [],
      "name": "limitOfParticipants",
      "outputs": [
        {
          "name": "",
          "type": "uint256"
        }
      ],
      "payable": false,
      "stateMutability": "view",
      "type": "function"
    },
    {
      "constant": false,
      "inputs": [],
      "name": "destroy",
      "outputs": [],
      "payable": false,
      "stateMutability": "nonpayable",
      "type": "function"
    },
    {
      "constant": true,
      "inputs": [],
      "name": "owner",
      "outputs": [
        {
          "name": "",
          "type": "address"
        }
      ],
      "payable": false,
      "stateMutability": "view",
      "type": "function"
    },
    {
      "constant": true,
      "inputs": [],
      "name": "coolingPeriod",
      "outputs": [
        {
          "name": "",
          "type": "uint256"
        }
      ],
      "payable": false,
      "stateMutability": "view",
      "type": "function"
    },
    {
      "constant": true,
      "inputs": [],
      "name": "cancelled",
      "outputs": [
        {
          "name": "",
          "type": "bool"
        }
      ],
      "payable": false,
      "stateMutability": "view",
      "type": "function"
    },
    {
      "constant": true,
      "inputs": [
        {
          "name": "",
          "type": "uint256"
        }
      ],
      "name": "participantsIndex",
      "outputs": [
        {
          "name": "",
          "type": "address"
        }
      ],
      "payable": false,
      "stateMutability": "view",
      "type": "function"
    },
    {
      "constant": true,
      "inputs": [],
      "name": "attended",
      "outputs": [
        {
          "name": "",
          "type": "uint256"
        }
      ],
      "payable": false,
      "stateMutability": "view",
      "type": "function"
    },
    {
      "constant": true,
      "inputs": [],
      "name": "deposit",
      "outputs": [
        {
          "name": "",
          "type": "uint256"
        }
      ],
      "payable": false,
      "stateMutability": "view",
      "type": "function"
    },
    {
      "constant": true,
      "inputs": [],
      "name": "attendeeCount",
      "outputs": [
        {
          "name": "",
          "type": "uint256"
        }
      ],
      "payable": false,
      "stateMutability": "view",
      "type": "function"
    },
    {
      "constant": false,
      "inputs": [
        {
          "name": "newOwner",
          "type": "address"
        }
      ],
      "name": "transferOwnership",
      "outputs": [],
      "payable": false,
      "stateMutability": "nonpayable",
      "type": "function"
    },
    {
      "constant": false,
      "inputs": [
        {
          "name": "_recipient",
          "type": "address"
        }
      ],
      "name": "destroyAndSend",
      "outputs": [],
      "payable": false,
      "stateMutability": "nonpayable",
      "type": "function"
    },
    {
      "inputs": [
        {
          "name": "_owner",
          "type": "address"
        },
        {
          "name": "_deposit",
          "type": "uint256"
        },
        {
          "name": "_limitOfParticipants",
          "type": "uint256"
        },
        {
          "name": "_coolingPeriod",
          "type": "uint256"
        }
      ],
      "payable": false,
      "stateMutability": "nonpayable",
      "type": "constructor"
    },
    {
      "anonymous": false,
      "inputs": [
        {
          "indexed": false,
          "name": "id",
          "type": "address"
        },
        {
          "indexed": false,
          "name": "userId",
          "type": "address"
        },
        {
          "indexed": false,
          "name": "attendeeCount",
          "type": "uint256"
        },
        {
          "indexed": false,
          "name": "isFull",
          "type": "bool"
        }
      ],
      "name": "RegisterEvent",
      "type": "event"
    },
    {
      "anonymous": false,
      "inputs": [
        {
          "indexed": false,
          "name": "addr",
          "type": "address"
        }
      ],
      "name": "AttendEvent",
      "type": "event"
    },
    {
      "anonymous": false,
      "inputs": [
        {
          "indexed": false,
          "name": "_payout",
          "type": "uint256"
        }
      ],
      "name": "PaybackEvent",
      "type": "event"
    },
    {
      "anonymous": false,
      "inputs": [
        {
          "indexed": false,
          "name": "addr",
          "type": "address"
        },
        {
          "indexed": false,
          "name": "_payout",
          "type": "uint256"
        }
      ],
      "name": "WithdrawEvent",
      "type": "event"
    },
    {
      "anonymous": false,
      "inputs": [],
      "name": "CancelEvent",
      "type": "event"
    },
    {
      "anonymous": false,
      "inputs": [
        {
          "indexed": false,
          "name": "addr",
          "type": "address"
        },
        {
          "indexed": false,
          "name": "leftOver",
          "type": "uint256"
        }
      ],
      "name": "ClearEvent",
      "type": "event"
    },
    {
      "anonymous": false,
      "inputs": [
        {
          "indexed": false,
          "name": "name",
          "type": "string"
        }
      ],
      "name": "ChangeNameEvent",
      "type": "event"
    },
    {
      "anonymous": false,
      "inputs": [
        {
          "indexed": true,
          "name": "grantee",
          "type": "address"
        }
      ],
      "name": "AdminGranted",
      "type": "event"
    },
    {
      "anonymous": false,
      "inputs": [
        {
          "indexed": true,
          "name": "grantee",
          "type": "address"
        }
      ],
      "name": "AdminRevoked",
      "type": "event"
    },
    {
      "anonymous": false,
      "inputs": [
        {
          "indexed": false,
          "name": "id",
          "type": "address"
        }
      ],
      "name": "DestroyEvent",
      "type": "event"
    },
    {
      "anonymous": false,
      "inputs": [
        {
          "indexed": true,
          "name": "previousOwner",
          "type": "address"
        },
        {
          "indexed": true,
          "name": "newOwner",
          "type": "address"
        }
      ],
      "name": "OwnershipTransferred",
      "type": "event"
    },
    {
      "constant": false,
      "inputs": [],
      "name": "register",
      "outputs": [],
      "payable": true,
      "stateMutability": "payable",
      "type": "function"
    },
    {
      "constant": false,
      "inputs": [],
      "name": "withdraw",
      "outputs": [],
      "payable": false,
      "stateMutability": "nonpayable",
      "type": "function"
    },
    {
      "constant": true,
      "inputs": [],
      "name": "totalBalance",
      "outputs": [
        {
          "name": "",
          "type": "uint256"
        }
      ],
      "payable": false,
      "stateMutability": "view",
      "type": "function"
    },
    {
      "constant": true,
      "inputs": [
        {
          "name": "_addr",
          "type": "address"
        }
      ],
      "name": "isRegistered",
      "outputs": [
        {
          "name": "",
          "type": "bool"
        }
      ],
      "payable": false,
      "stateMutability": "view",
      "type": "function"
    },
    {
      "constant": true,
      "inputs": [
        {
          "name": "_addr",
          "type": "address"
        }
      ],
      "name": "isAttended",
      "outputs": [
        {
          "name": "",
          "type": "bool"
        }
      ],
      "payable": false,
      "stateMutability": "view",
      "type": "function"
    },
    {
      "constant": true,
      "inputs": [
        {
          "name": "_addr",
          "type": "address"
        }
      ],
      "name": "isPaid",
      "outputs": [
        {
          "name": "",
          "type": "bool"
        }
      ],
      "payable": false,
      "stateMutability": "view",
      "type": "function"
    },
    {
      "constant": true,
      "inputs": [],
      "name": "payout",
      "outputs": [
        {
          "name": "",
          "type": "uint256"
        }
      ],
      "payable": false,
      "stateMutability": "view",
      "type": "function"
    },
    {
      "constant": false,
      "inputs": [],
      "name": "payback",
      "outputs": [],
      "payable": false,
      "stateMutability": "nonpayable",
      "type": "function"
    },
    {
      "constant": false,
      "inputs": [],
      "name": "cancel",
      "outputs": [],
      "payable": false,
      "stateMutability": "nonpayable",
      "type": "function"
    },
    {
      "constant": false,
      "inputs": [],
      "name": "clear",
      "outputs": [],
      "payable": false,
      "stateMutability": "nonpayable",
      "type": "function"
    },
    {
      "constant": false,
      "inputs": [
        {
          "name": "_limitOfParticipants",
          "type": "uint256"
        }
      ],
      "name": "setLimitOfParticipants",
      "outputs": [],
      "payable": false,
      "stateMutability": "nonpayable",
      "type": "function"
    },
    {
      "constant": false,
      "inputs": [
        {
          "name": "_name",
          "type": "string"
        }
      ],
      "name": "changeName",
      "outputs": [],
      "payable": false,
      "stateMutability": "nonpayable",
      "type": "function"
    },
    {
      "constant": false,
      "inputs": [
        {
          "name": "_addresses",
          "type": "address[]"
        }
      ],
      "name": "attend",
      "outputs": [],
      "payable": false,
      "stateMutability": "nonpayable",
      "type": "function"
    },
    {
      "constant": true,
      "inputs": [],
      "name": "isFull",
      "outputs": [
        {
          "name": "",
          "type": "bool"
        }
      ],
      "payable": false,
      "stateMutability": "view",
      "type": "function"
    }
  ],
  "bytecode": "0x60806040523480156200001157600080fd5b506040516080806200226383398101806040528101908080519060200190929190805190602001909291908051906020019092919080519060200190929190505050336000806101000a81548173ffffffffffffffffffffffffffffffffffffffff021916908373ffffffffffffffffffffffffffffffffffffffff16021790555060008473ffffffffffffffffffffffffffffffffffffffff161415151562000149576040517f08c379a00000000000000000000000000000000000000000000000000000000081526004018080602001828103825260218152602001807f4f776e6572206e6565647320746f20626520612076616c69642061646472657381526020017f730000000000000000000000000000000000000000000000000000000000000081525060400191505060405180910390fd5b836000806101000a81548173ffffffffffffffffffffffffffffffffffffffff021916908373ffffffffffffffffffffffffffffffffffffffff160217905550600083141515620001a15782600281905550620001b0565b66470de4df8200006002819055505b600082141515620001c85781600381905550620001d1565b60146003819055505b600081141515620001e95780600881905550620001f4565b62093a806008819055505b5050505061205b80620002086000396000f3006080604052600436106101b7576000357c0100000000000000000000000000000000000000000000000000000000900463ffffffff1680630191dc92146101bc57806305f203d9146101e757806309e69ede1461024d57806312fa6feb146102e657806314bfd6d0146103155780631aa3a008146103825780631e3c93521461038c57806324d7806c146103f257806331ae450b1461044d5780633ccfd60b146104b95780633d6a71e4146104d057806352efea6e146104fb5780635353a2d81461051257806363bd1d4a1461054d5780636b46c8c3146105785780636d006ae8146105a35780636ded82f8146105ce57806383197ef014610629578063854bec87146106405780638da5cb5b146106575780639328beee146106ae578063982495c7146106d95780639989a5ae146107145780639a82a09a146107415780639b25cacb14610770578063a07f3a56146107dd578063ad7a672f14610838578063b5e10e9a14610863578063babd3d9a1461088e578063c3c5a547146108bd578063d0e30db014610918578063ea8a1af014610943578063f1adda471461095a578063f2fde38b14610985578063f5074f41146109c8575b600080fd5b3480156101c857600080fd5b506101d1610a0b565b6040518082815260200191505060405180910390f35b3480156101f357600080fd5b5061024b60048036038101908080359060200190820180359060200190808060200260200160405190810160405280939291908181526020018383602002808284378201915050505050509192919290505050610a18565b005b34801561025957600080fd5b5061028e600480360381019080803573ffffffffffffffffffffffffffffffffffffffff169060200190929190505050610c45565b604051808473ffffffffffffffffffffffffffffffffffffffff1673ffffffffffffffffffffffffffffffffffffffff1681526020018315151515815260200182151515158152602001935050505060405180910390f35b3480156102f257600080fd5b506102fb610ca9565b604051808215151515815260200191505060405180910390f35b34801561032157600080fd5b5061034060048036038101908080359060200190929190505050610cbc565b604051808273ffffffffffffffffffffffffffffffffffffffff1673ffffffffffffffffffffffffffffffffffffffff16815260200191505060405180910390f35b61038a610cfa565b005b34801561039857600080fd5b506103f060048036038101908080359060200190820180359060200190808060200260200160405190810160405280939291908181526020018383602002808284378201915050505050509192919290505050610dda565b005b3480156103fe57600080fd5b50610433600480360381019080803573ffffffffffffffffffffffffffffffffffffffff169060200190929190505050610f2d565b604051808215151515815260200191505060405180910390f35b34801561045957600080fd5b5061046261102e565b6040518080602001828103825283818151815260200191508051906020019060200280838360005b838110156104a557808201518184015260208101905061048a565b505050509050019250505060405180910390f35b3480156104c557600080fd5b506104ce6110bc565b005b3480156104dc57600080fd5b506104e56112db565b6040518082815260200191505060405180910390f35b34801561050757600080fd5b506105106112e1565b005b34801561051e57600080fd5b5061054b60048036038101908080359060200190820180359060200191909192939192939050505061146e565b005b34801561055957600080fd5b506105626115aa565b6040518082815260200191505060405180910390f35b34801561058457600080fd5b5061058d6115da565b6040518082815260200191505060405180910390f35b3480156105af57600080fd5b506105b86115e0565b6040518082815260200191505060405180910390f35b3480156105da57600080fd5b5061060f600480360381019080803573ffffffffffffffffffffffffffffffffffffffff1690602001909291905050506115e6565b604051808215151515815260200191505060405180910390f35b34801561063557600080fd5b5061063e611650565b005b34801561064c57600080fd5b506106556116e5565b005b34801561066357600080fd5b5061066c6117c7565b604051808273ffffffffffffffffffffffffffffffffffffffff1673ffffffffffffffffffffffffffffffffffffffff16815260200191505060405180910390f35b3480156106ba57600080fd5b506106c36117ec565b6040518082815260200191505060405180910390f35b3480156106e557600080fd5b506107126004803603810190808035906020019082018035906020019190919293919293905050506117f2565b005b34801561072057600080fd5b5061073f6004803603810190808035906020019092919050505061196e565b005b34801561074d57600080fd5b506107566119ef565b604051808215151515815260200191505060405180910390f35b34801561077c57600080fd5b5061079b60048036038101908080359060200190929190505050611a02565b604051808273ffffffffffffffffffffffffffffffffffffffff1673ffffffffffffffffffffffffffffffffffffffff16815260200191505060405180910390f35b3480156107e957600080fd5b5061081e600480360381019080803573ffffffffffffffffffffffffffffffffffffffff169060200190929190505050611a35565b604051808215151515815260200191505060405180910390f35b34801561084457600080fd5b5061084d611a9f565b6040518082815260200191505060405180910390f35b34801561086f57600080fd5b50610878611abe565b6040518082815260200191505060405180910390f35b34801561089a57600080fd5b506108a3611ac4565b604051808215151515815260200191505060405180910390f35b3480156108c957600080fd5b506108fe600480360381019080803573ffffffffffffffffffffffffffffffffffffffff169060200190929190505050611ae3565b604051808215151515815260200191505060405180910390f35b34801561092457600080fd5b5061092d611b7e565b6040518082815260200191505060405180910390f35b34801561094f57600080fd5b50610958611b84565b005b34801561096657600080fd5b5061096f611c6f565b6040518082815260200191505060405180910390f35b34801561099157600080fd5b506109c6600480360381019080803573ffffffffffffffffffffffffffffffffffffffff169060200190929190505050611c75565b005b3480156109d457600080fd5b50610a09600480360381019080803573ffffffffffffffffffffffffffffffffffffffff169060200190929190505050611dca565b005b6000600180549050905090565b6000806000809054906101000a900473ffffffffffffffffffffffffffffffffffffffff1673ffffffffffffffffffffffffffffffffffffffff163373ffffffffffffffffffffffffffffffffffffffff16141515610a7657600080fd5b600091505b8251821015610c4057600090505b600180549050811015610c33578282815181101515610aa457fe5b9060200190602002015173ffffffffffffffffffffffffffffffffffffffff16600182815481101515610ad357fe5b9060005260206000200160009054906101000a900473ffffffffffffffffffffffffffffffffffffffff1673ffffffffffffffffffffffffffffffffffffffff161415610c2657600180808054905003815481101515610b2f57fe5b9060005260206000200160009054906101000a900473ffffffffffffffffffffffffffffffffffffffff16600182815481101515610b6957fe5b9060005260206000200160006101000a81548173ffffffffffffffffffffffffffffffffffffffff021916908373ffffffffffffffffffffffffffffffffffffffff1602179055506001805480919060019003610bc69190611fde565b508282815181101515610bd557fe5b9060200190602002015173ffffffffffffffffffffffffffffffffffffffff167f631ff1c4e1a02c54b480a34b810e03bcee61fe38efcb243930a7f820914923e260405160405180910390a2610c33565b8080600101915050610a89565b8180600101925050610a7b565b505050565b600a6020528060005260406000206000915090508060000160009054906101000a900473ffffffffffffffffffffffffffffffffffffffff16908060000160149054906101000a900460ff16908060000160159054906101000a900460ff16905083565b600660009054906101000a900460ff1681565b600181815481101515610ccb57fe5b906000526020600020016000915054906101000a900473ffffffffffffffffffffffffffffffffffffffff1681565b6000600660009054906101000a900460ff16151515610d1857600080fd5b610d20611e3e565b610d28611ac4565b90507f4746f5ea497d64a2f6804238556b03a3b69e46d901f981fb5551b016b14f0686303360045484604051808573ffffffffffffffffffffffffffffffffffffffff1673ffffffffffffffffffffffffffffffffffffffff1681526020018473ffffffffffffffffffffffffffffffffffffffff1673ffffffffffffffffffffffffffffffffffffffff1681526020018381526020018215151515815260200194505050505060405180910390a150565b60008060009054906101000a900473ffffffffffffffffffffffffffffffffffffffff1673ffffffffffffffffffffffffffffffffffffffff163373ffffffffffffffffffffffffffffffffffffffff16141515610e3757600080fd5b600090505b8151811015610f295760018282815181101515610e5557fe5b9060200190602002015190806001815401808255809150509060018203906000526020600020016000909192909190916101000a81548173ffffffffffffffffffffffffffffffffffffffff021916908373ffffffffffffffffffffffffffffffffffffffff160217905550508181815181101515610ed057fe5b9060200190602002015173ffffffffffffffffffffffffffffffffffffffff167f1c4e23de8d72c94b22992bd4d7b6786b215ba876af214ff63e6a0ca38fc97af460405160405180910390a28080600101915050610e3c565b5050565b6000806000809054906101000a900473ffffffffffffffffffffffffffffffffffffffff1673ffffffffffffffffffffffffffffffffffffffff168373ffffffffffffffffffffffffffffffffffffffff161415610f8e5760019150611028565b600090505b600180549050811015611023578273ffffffffffffffffffffffffffffffffffffffff16600182815481101515610fc657fe5b9060005260206000200160009054906101000a900473ffffffffffffffffffffffffffffffffffffffff1673ffffffffffffffffffffffffffffffffffffffff1614156110165760019150611028565b8080600101915050610f93565b600091505b50919050565b606060018054806020026020016040519081016040528092919081815260200182805480156110b257602002820191906000526020600020905b8160009054906101000a900473ffffffffffffffffffffffffffffffffffffffff1673ffffffffffffffffffffffffffffffffffffffff1681526020019060010190808311611068575b5050505050905090565b6000600660009054906101000a900460ff1615156110d957600080fd5b60006009541115156110ea57600080fd5b600a60003373ffffffffffffffffffffffffffffffffffffffff1673ffffffffffffffffffffffffffffffffffffffff16815260200190815260200160002090503373ffffffffffffffffffffffffffffffffffffffff168160000160009054906101000a900473ffffffffffffffffffffffffffffffffffffffff1673ffffffffffffffffffffffffffffffffffffffff1614151561118957600080fd5b600660019054906101000a900460ff16806111b257508060000160149054906101000a900460ff165b15156111bd57600080fd5b600015158160000160159054906101000a900460ff1615151415156111e157600080fd5b60018160000160156101000a81548160ff0219169083151502179055508060000160009054906101000a900473ffffffffffffffffffffffffffffffffffffffff1673ffffffffffffffffffffffffffffffffffffffff166108fc6009549081150290604051600060405180830381858888f1935050505015801561126a573d6000803e3d6000fd5b507f5dba113b49cfa7c90315e8e604e6b506f7abcb909b01dcb19ec39005086e68fc33600954604051808373ffffffffffffffffffffffffffffffffffffffff1673ffffffffffffffffffffffffffffffffffffffff1681526020018281526020019250505060405180910390a150565b60075481565b60008060009054906101000a900473ffffffffffffffffffffffffffffffffffffffff1673ffffffffffffffffffffffffffffffffffffffff163373ffffffffffffffffffffffffffffffffffffffff1614151561133e57600080fd5b600660009054906101000a900460ff16151561135957600080fd5b600854600754014211151561136d57600080fd5b611375611a9f565b90506000809054906101000a900473ffffffffffffffffffffffffffffffffffffffff1673ffffffffffffffffffffffffffffffffffffffff166108fc829081150290604051600060405180830381858888f193505050501580156113de573d6000803e3d6000fd5b507f61355a34c3bc2e502a24eba7ad2fb0fd0d05c4f71de8cb041fbe39cd3649665e6000809054906101000a900473ffffffffffffffffffffffffffffffffffffffff1682604051808373ffffffffffffffffffffffffffffffffffffffff1673ffffffffffffffffffffffffffffffffffffffff1681526020018281526020019250505060405180910390a150565b6000809054906101000a900473ffffffffffffffffffffffffffffffffffffffff1673ffffffffffffffffffffffffffffffffffffffff163373ffffffffffffffffffffffffffffffffffffffff161415156114c957600080fd5b60006004541415156114da57600080fd5b600082829050111515611555576040517f08c379a00000000000000000000000000000000000000000000000000000000081526004018080602001828103825260178152602001807f4e6577206e616d65206e6565647320746f20657869737400000000000000000081525060200191505060405180910390fd5b7f50cccf40d174cba784cc6c10d8511123e07dbfcbbfe39e7e0ace01675a688bc28282604051808060200182810382528484828181526020019250808284378201915050935050505060405180910390a15050565b60008060055414156115bf57600090506115d7565b6005546115ca611a9f565b8115156115d357fe5b0490505b90565b60095481565b60035481565b60006115f182611ae3565b80156116495750600a60008373ffffffffffffffffffffffffffffffffffffffff1673ffffffffffffffffffffffffffffffffffffffff16815260200190815260200160002060000160159054906101000a900460ff165b9050919050565b6000809054906101000a900473ffffffffffffffffffffffffffffffffffffffff1673ffffffffffffffffffffffffffffffffffffffff163373ffffffffffffffffffffffffffffffffffffffff161415156116ab57600080fd5b6000809054906101000a900473ffffffffffffffffffffffffffffffffffffffff1673ffffffffffffffffffffffffffffffffffffffff16ff5b6000809054906101000a900473ffffffffffffffffffffffffffffffffffffffff1673ffffffffffffffffffffffffffffffffffffffff163373ffffffffffffffffffffffffffffffffffffffff1614151561174057600080fd5b600660009054906101000a900460ff1615151561175c57600080fd5b6117646115aa565b6009819055506001600660006101000a81548160ff021916908315150217905550426007819055507fb7152de35affc741a6b2355d37e9caf51fe847cacfccd414be5e15996ff7e6c66009546040518082815260200191505060405180910390a1565b6000809054906101000a900473ffffffffffffffffffffffffffffffffffffffff1681565b60085481565b6000806117fe33610f2d565b151561180957600080fd5b600660009054906101000a900460ff1615151561182557600080fd5b600091505b8383905082101561196857838383818110151561184357fe5b9050602002013573ffffffffffffffffffffffffffffffffffffffff16905061186b81611ae3565b151561187657600080fd5b61187f81611a35565b15151561188b57600080fd5b7f1c5e7a37dd4095194684d8f835d2c81b686d64d685032055a7cd02edc7c49ed881604051808273ffffffffffffffffffffffffffffffffffffffff1673ffffffffffffffffffffffffffffffffffffffff16815260200191505060405180910390a16001600a60008373ffffffffffffffffffffffffffffffffffffffff1673ffffffffffffffffffffffffffffffffffffffff16815260200190815260200160002060000160146101000a81548160ff021916908315150217905550600560008154809291906001019190505550818060010192505061182a565b50505050565b6000809054906101000a900473ffffffffffffffffffffffffffffffffffffffff1673ffffffffffffffffffffffffffffffffffffffff163373ffffffffffffffffffffffffffffffffffffffff161415156119c957600080fd5b600660009054906101000a900460ff161515156119e557600080fd5b8060038190555050565b600660019054906101000a900460ff1681565b600b6020528060005260406000206000915054906101000a900473ffffffffffffffffffffffffffffffffffffffff1681565b6000611a4082611ae3565b8015611a985750600a60008373ffffffffffffffffffffffffffffffffffffffff1673ffffffffffffffffffffffffffffffffffffffff16815260200190815260200160002060000160149054906101000a900460ff165b9050919050565b60003073ffffffffffffffffffffffffffffffffffffffff1631905090565b60055481565b60006003546004541015611adb5760009050611ae0565b600190505b90565b60008073ffffffffffffffffffffffffffffffffffffffff16600a60008473ffffffffffffffffffffffffffffffffffffffff1673ffffffffffffffffffffffffffffffffffffffff16815260200190815260200160002060000160009054906101000a900473ffffffffffffffffffffffffffffffffffffffff1673ffffffffffffffffffffffffffffffffffffffff1614159050919050565b60025481565b6000809054906101000a900473ffffffffffffffffffffffffffffffffffffffff1673ffffffffffffffffffffffffffffffffffffffff163373ffffffffffffffffffffffffffffffffffffffff16141515611bdf57600080fd5b600660009054906101000a900460ff16151515611bfb57600080fd5b6002546009819055506001600660016101000a81548160ff0219169083151502179055506001600660006101000a81548160ff021916908315150217905550426007819055507faac5ae2dfd439bb6c2f88b2d8af5b285cfee7584ad0d13ae7c00c1226c7c4c7b60405160405180910390a1565b60045481565b6000809054906101000a900473ffffffffffffffffffffffffffffffffffffffff1673ffffffffffffffffffffffffffffffffffffffff163373ffffffffffffffffffffffffffffffffffffffff16141515611cd057600080fd5b600073ffffffffffffffffffffffffffffffffffffffff168173ffffffffffffffffffffffffffffffffffffffff1614151515611d0c57600080fd5b8073ffffffffffffffffffffffffffffffffffffffff166000809054906101000a900473ffffffffffffffffffffffffffffffffffffffff1673ffffffffffffffffffffffffffffffffffffffff167f8be0079c531659141344cd1fd0a4f28419497f9722a3daafe3b4186f6b6457e060405160405180910390a3806000806101000a81548173ffffffffffffffffffffffffffffffffffffffff021916908373ffffffffffffffffffffffffffffffffffffffff16021790555050565b6000809054906101000a900473ffffffffffffffffffffffffffffffffffffffff1673ffffffffffffffffffffffffffffffffffffffff163373ffffffffffffffffffffffffffffffffffffffff16141515611e2557600080fd5b8073ffffffffffffffffffffffffffffffffffffffff16ff5b60025434141515611e4e57600080fd5b600354600454101515611e6057600080fd5b611e6933611ae3565b151515611e7557600080fd5b60046000815480929190600101919050555033600b6000600454815260200190815260200160002060006101000a81548173ffffffffffffffffffffffffffffffffffffffff021916908373ffffffffffffffffffffffffffffffffffffffff1602179055506060604051908101604052803373ffffffffffffffffffffffffffffffffffffffff16815260200160001515815260200160001515815250600a60003373ffffffffffffffffffffffffffffffffffffffff1673ffffffffffffffffffffffffffffffffffffffff16815260200190815260200160002060008201518160000160006101000a81548173ffffffffffffffffffffffffffffffffffffffff021916908373ffffffffffffffffffffffffffffffffffffffff16021790555060208201518160000160146101000a81548160ff02191690831515021790555060408201518160000160156101000a81548160ff021916908315150217905550905050565b81548183558181111561200557818360005260206000209182019101612004919061200a565b5b505050565b61202c91905b80821115612028576000816000905550600101612010565b5090565b905600a165627a7a72305820c52a23cae16efdac6b9482e0f182eeeb9fa8532780fada2329de19d1e4947f7f0029",
  "source": "pragma solidity 0.4.24;\n\nimport \"./GroupAdmin.sol\";\nimport \"../zeppelin/lifecycle/Destructible.sol\";\n\ncontract Conference is Destructible, GroupAdmin {    \n    // string public name;\n    uint256 public deposit;\n    uint public limitOfParticipants;\n    uint public attendeeCount;\n    uint public attended;\n    bool public ended;\n    bool public cancelled;\n    uint public endedAt;\n    uint public coolingPeriod;\n    uint256 public payoutAmount;\n    // string public description;\n    // uint public date;\n    // bytes8 public geohash;\n\n    mapping (address => Participant) public participants;\n    mapping (uint => address) public participantsIndex;\n\n    struct Participant {\n        address addr;\n        bool attended;\n        bool paid;\n    }\n\n    event RegisterEvent(address id, address userId, uint attendeeCount, bool isFull);\n    event AttendEvent(address addr);\n    event PaybackEvent(uint256 _payout);\n    event WithdrawEvent(address addr, uint256 _payout);\n    event CancelEvent();\n    event ClearEvent(address addr, uint256 leftOver);\n    event ChangeNameEvent(string name);\n\n    /* Modifiers */\n    modifier onlyActive {\n        require(!ended);\n        _;\n    }\n\n    modifier noOneRegistered {\n        require(attendeeCount == 0);\n        _;\n    }\n\n    modifier onlyEnded {\n        require(ended);\n        _;\n    }\n\n    /* Public functions */\n    /**\n     * @dev Construcotr.\n     * @param _owner Address of the owner of the event, group admin\n     * @param _deposit The amount each participant deposits. The default is set to 0.02 Ether. The amount cannot be changed once deployed.\n     * @param _limitOfParticipants The number of participant. The default is set to 20. The number can be changed by the owner of the event.\n     * @param _coolingPeriod The period participants should withdraw their deposit after the event ends. After the cooling period, the event owner can claim the remining deposits.\n     */\n    constructor (\n        address _owner,\n        // string _name,\n        uint256 _deposit,\n        uint _limitOfParticipants,\n        uint _coolingPeriod\n        // string _description,\n        // uint _date,\n        // bytes8 _geohash\n    ) public {\n        require(_owner != 0x0, \"Owner needs to be a valid address\");\n        owner = _owner;\n\n        // if (bytes(_name).length != 0){\n        //     name = _name;\n        // } else {\n        //     name = \"Test\";\n        // }\n\n        if(_deposit != 0){\n            deposit = _deposit;\n        }else{\n            deposit = 0.02 ether;\n        }\n\n        if (_limitOfParticipants != 0){\n            limitOfParticipants = _limitOfParticipants;\n        }else{\n            limitOfParticipants = 20;\n        }\n\n        if (_coolingPeriod != 0) {\n            coolingPeriod = _coolingPeriod;\n        } else {\n            coolingPeriod = 1 weeks;\n        }\n\n        // if (bytes(_description).length != 0) {\n        //     description = _description;\n        // } else {\n        //     description = \"Test\";\n        // }\n\n        // if (_date != 0) {\n        //     date = _date;\n        // } else {\n        //     date = block.timestamp;\n        // }\n\n        // if (_geohash.length != 0) {\n        //     geohash = _geohash;\n        // } else {\n        //     geohash = 0x0;\n        // }\n    }\n\n    /**\n     * @dev Registers message sender.\n     */\n    function register() external payable onlyActive{\n        registerInternal();\n        bool full = isFull();\n        emit RegisterEvent(this, msg.sender, attendeeCount, full);\n    }\n\n    /**\n     * @dev The internal function to register participant\n     */\n    function registerInternal() internal {\n        require(msg.value == deposit);\n        require(attendeeCount < limitOfParticipants);\n        require(!isRegistered(msg.sender));\n\n        attendeeCount++;\n        participantsIndex[attendeeCount] = msg.sender;\n        participants[msg.sender] = Participant(msg.sender, false, false);\n    }\n\n    /**\n     * @dev Withdraws deposit after the event is over.\n     */\n    function withdraw() external onlyEnded{\n        require(payoutAmount > 0);\n        Participant storage participant = participants[msg.sender];\n        require(participant.addr == msg.sender);\n        require(cancelled || participant.attended);\n        require(participant.paid == false);\n\n        participant.paid = true;\n        participant.addr.transfer(payoutAmount);\n        emit WithdrawEvent(msg.sender, payoutAmount);\n    }\n\n    /* Constants */\n    /**\n     * @dev Returns total balance of the contract. This function can be deprecated when refactroing front end code.\n     * @return The total balance of the contract.\n     */\n    function totalBalance() view public returns (uint256){\n        return address(this).balance;\n    }\n\n    /**\n     * @dev Returns true if the given user is registered.\n     * @param _addr The address of a participant.\n     * @return True if the address exists in the pariticipant list.\n     */\n    function isRegistered(address _addr) view public returns (bool){\n        return participants[_addr].addr != address(0);\n    }\n\n    /**\n     * @dev Returns true if the given user is attended.\n     * @param _addr The address of a participant.\n     * @return True if the user is marked as attended by admin.\n     */\n    function isAttended(address _addr) view public returns (bool){\n        return isRegistered(_addr) && participants[_addr].attended;\n    }\n\n    /**\n     * @dev Returns true if the given user has withdrawn his/her deposit.\n     * @param _addr The address of a participant.\n     * @return True if the attendee has withdrawn his/her deposit.\n     */\n    function isPaid(address _addr) view public returns (bool){\n        return isRegistered(_addr) && participants[_addr].paid;\n    }\n\n    /**\n     * @dev Show the payout amount each participant can withdraw.\n     * @return The amount each participant can withdraw.\n     */\n    function payout() view public returns(uint256){\n        if (attended == 0) return 0;\n        return uint(totalBalance()) / uint(attended);\n    }\n\n    /* Admin only functions */\n\n    /**\n     * @dev Ends the event by owner\n     */\n    function payback() external onlyOwner onlyActive{\n        payoutAmount = payout();\n        ended = true;\n        endedAt = now;\n        emit PaybackEvent(payoutAmount);\n    }\n\n    /**\n     * @dev Cancels the event by owner. When the event is canceled each participant can withdraw their deposit back.\n     */\n    function cancel() external onlyOwner onlyActive{\n        payoutAmount = deposit;\n        cancelled = true;\n        ended = true;\n        endedAt = now;\n        emit CancelEvent();\n    }\n\n    /**\n    * @dev The event owner transfer the outstanding deposits  if there are any unclaimed deposits after cooling period\n    */\n    function clear() external onlyOwner onlyEnded{\n        require(now > endedAt + coolingPeriod);\n        uint leftOver = totalBalance();\n        owner.transfer(leftOver);\n        emit ClearEvent(owner, leftOver);\n    }\n\n    /**\n     * @dev Change the capacity of the event. The owner can change it until event is over.\n     * @param _limitOfParticipants the number of the capacity of the event.\n     */\n    function setLimitOfParticipants(uint _limitOfParticipants) external onlyOwner onlyActive{\n        limitOfParticipants = _limitOfParticipants;\n    }\n\n    /**\n     * @dev Change the name of the event. The owner can change it as long as no one has registered yet.\n     * @param _name the name of the event.\n     */\n    function changeName(string _name) external onlyOwner noOneRegistered{\n        // name = _name;\n        require(bytes(_name).length > 0, \"New name needs to exist\");\n        emit ChangeNameEvent(_name);\n    }\n\n    /**\n     * @dev Mark participants as attended. The attendance cannot be undone.\n     * @param _addresses The list of participant's address.\n     */\n    function attend(address[] _addresses) external onlyAdmin onlyActive{\n        for( uint i = 0; i < _addresses.length; i++){\n            address _addr = _addresses[i];\n            require(isRegistered(_addr));\n            require(!isAttended(_addr));\n            emit AttendEvent(_addr);\n            participants[_addr].attended = true;\n            attended++;\n        }\n    }\n\n    function isFull() public view returns(bool) {\n        if (attendeeCount < limitOfParticipants) {\n            return false;\n        } else {\n            return true;\n        }\n    }\n}\n",
  "sourcePath": "/Users/jackleslie/Desktop/Hackathons/meet-up/contracts/blockparty/Conference.sol",
  "compiler": {
    "name": "solc",
    "version": "0.4.24+commit.e67f0147.Emscripten.clang"
  },
  "schemaVersion": "3.0.0-beta.0",
  "updatedAt": "2018-09-09T08:36:29.148Z"
}