{
  "contractName": "Conference",
  "abi": [
    {
      "constant": true,
      "inputs": [],
      "name": "numOfAdmins",
      "outputs": [
        {
          "name": "",
          "type": "uint256"
        }
      ],
      "payable": false,
      "stateMutability": "view",
      "type": "function"
    },
    {
      "constant": false,
      "inputs": [
        {
          "name": "oldAdmins",
          "type": "address[]"
        }
      ],
      "name": "revoke",
      "outputs": [],
      "payable": false,
      "stateMutability": "nonpayable",
      "type": "function"
    },
    {
      "constant": true,
      "inputs": [
        {
          "name": "",
          "type": "address"
        }
      ],
      "name": "participants",
      "outputs": [
        {
          "name": "addr",
          "type": "address"
        },
        {
          "name": "attended",
          "type": "bool"
        },
        {
          "name": "paid",
          "type": "bool"
        }
      ],
      "payable": false,
      "stateMutability": "view",
      "type": "function"
    },
    {
      "constant": true,
      "inputs": [],
      "name": "ended",
      "outputs": [
        {
          "name": "",
          "type": "bool"
        }
      ],
      "payable": false,
      "stateMutability": "view",
      "type": "function"
    },
    {
      "constant": true,
      "inputs": [
        {
          "name": "",
          "type": "uint256"
        }
      ],
      "name": "admins",
      "outputs": [
        {
          "name": "",
          "type": "address"
        }
      ],
      "payable": false,
      "stateMutability": "view",
      "type": "function"
    },
    {
      "constant": false,
      "inputs": [
        {
          "name": "newAdmins",
          "type": "address[]"
        }
      ],
      "name": "grant",
      "outputs": [],
      "payable": false,
      "stateMutability": "nonpayable",
      "type": "function"
    },
    {
      "constant": true,
      "inputs": [
        {
          "name": "admin",
          "type": "address"
        }
      ],
      "name": "isAdmin",
      "outputs": [
        {
          "name": "",
          "type": "bool"
        }
      ],
      "payable": false,
      "stateMutability": "view",
      "type": "function"
    },
    {
      "constant": true,
      "inputs": [],
      "name": "registered",
      "outputs": [
        {
          "name": "",
          "type": "uint256"
        }
      ],
      "payable": false,
      "stateMutability": "view",
      "type": "function"
    },
    {
      "constant": true,
      "inputs": [],
      "name": "getAdmins",
      "outputs": [
        {
          "name": "",
          "type": "address[]"
        }
      ],
      "payable": false,
      "stateMutability": "view",
      "type": "function"
    },
    {
      "constant": true,
      "inputs": [],
      "name": "endedAt",
      "outputs": [
        {
          "name": "",
          "type": "uint256"
        }
      ],
      "payable": false,
      "stateMutability": "view",
      "type": "function"
    },
    {
      "constant": true,
      "inputs": [],
      "name": "payoutAmount",
      "outputs": [
        {
          "name": "",
          "type": "uint256"
        }
      ],
      "payable": false,
      "stateMutability": "view",
      "type": "function"
    },
    {
      "constant": true,
      "inputs": [],
      "name": "limitOfParticipants",
      "outputs": [
        {
          "name": "",
          "type": "uint256"
        }
      ],
      "payable": false,
      "stateMutability": "view",
      "type": "function"
    },
    {
      "constant": false,
      "inputs": [],
      "name": "destroy",
      "outputs": [],
      "payable": false,
      "stateMutability": "nonpayable",
      "type": "function"
    },
    {
      "constant": true,
      "inputs": [],
      "name": "owner",
      "outputs": [
        {
          "name": "",
          "type": "address"
        }
      ],
      "payable": false,
      "stateMutability": "view",
      "type": "function"
    },
    {
      "constant": true,
      "inputs": [],
      "name": "coolingPeriod",
      "outputs": [
        {
          "name": "",
          "type": "uint256"
        }
      ],
      "payable": false,
      "stateMutability": "view",
      "type": "function"
    },
    {
      "constant": true,
      "inputs": [],
      "name": "cancelled",
      "outputs": [
        {
          "name": "",
          "type": "bool"
        }
      ],
      "payable": false,
      "stateMutability": "view",
      "type": "function"
    },
    {
      "constant": true,
      "inputs": [
        {
          "name": "",
          "type": "uint256"
        }
      ],
      "name": "participantsIndex",
      "outputs": [
        {
          "name": "",
          "type": "address"
        }
      ],
      "payable": false,
      "stateMutability": "view",
      "type": "function"
    },
    {
      "constant": true,
      "inputs": [],
      "name": "attended",
      "outputs": [
        {
          "name": "",
          "type": "uint256"
        }
      ],
      "payable": false,
      "stateMutability": "view",
      "type": "function"
    },
    {
      "constant": true,
      "inputs": [],
      "name": "deposit",
      "outputs": [
        {
          "name": "",
          "type": "uint256"
        }
      ],
      "payable": false,
      "stateMutability": "view",
      "type": "function"
    },
    {
      "constant": false,
      "inputs": [
        {
          "name": "newOwner",
          "type": "address"
        }
      ],
      "name": "transferOwnership",
      "outputs": [],
      "payable": false,
      "stateMutability": "nonpayable",
      "type": "function"
    },
    {
      "constant": false,
      "inputs": [
        {
          "name": "_recipient",
          "type": "address"
        }
      ],
      "name": "destroyAndSend",
      "outputs": [],
      "payable": false,
      "stateMutability": "nonpayable",
      "type": "function"
    },
    {
      "inputs": [
        {
          "name": "_owner",
          "type": "address"
        },
        {
          "name": "_deposit",
          "type": "uint256"
        },
        {
          "name": "_limitOfParticipants",
          "type": "uint256"
        },
        {
          "name": "_coolingPeriod",
          "type": "uint256"
        }
      ],
      "payable": false,
      "stateMutability": "nonpayable",
      "type": "constructor"
    },
    {
      "anonymous": false,
      "inputs": [
        {
          "indexed": false,
          "name": "addr",
          "type": "address"
        },
        {
          "indexed": false,
          "name": "registered",
          "type": "uint256"
        },
        {
          "indexed": false,
          "name": "limitOfParticipants",
          "type": "uint256"
        },
        {
          "indexed": false,
          "name": "isFull",
          "type": "bool"
        }
      ],
      "name": "RegisterEvent",
      "type": "event"
    },
    {
      "anonymous": false,
      "inputs": [
        {
          "indexed": false,
          "name": "addr",
          "type": "address"
        }
      ],
      "name": "AttendEvent",
      "type": "event"
    },
    {
      "anonymous": false,
      "inputs": [
        {
          "indexed": false,
          "name": "_payout",
          "type": "uint256"
        }
      ],
      "name": "PaybackEvent",
      "type": "event"
    },
    {
      "anonymous": false,
      "inputs": [
        {
          "indexed": false,
          "name": "addr",
          "type": "address"
        },
        {
          "indexed": false,
          "name": "_payout",
          "type": "uint256"
        }
      ],
      "name": "WithdrawEvent",
      "type": "event"
    },
    {
      "anonymous": false,
      "inputs": [],
      "name": "CancelEvent",
      "type": "event"
    },
    {
      "anonymous": false,
      "inputs": [
        {
          "indexed": false,
          "name": "addr",
          "type": "address"
        },
        {
          "indexed": false,
          "name": "leftOver",
          "type": "uint256"
        }
      ],
      "name": "ClearEvent",
      "type": "event"
    },
    {
      "anonymous": false,
      "inputs": [
        {
          "indexed": false,
          "name": "name",
          "type": "string"
        }
      ],
      "name": "ChangeNameEvent",
      "type": "event"
    },
    {
      "anonymous": false,
      "inputs": [
        {
          "indexed": true,
          "name": "grantee",
          "type": "address"
        }
      ],
      "name": "AdminGranted",
      "type": "event"
    },
    {
      "anonymous": false,
      "inputs": [
        {
          "indexed": true,
          "name": "grantee",
          "type": "address"
        }
      ],
      "name": "AdminRevoked",
      "type": "event"
    },
    {
      "anonymous": false,
      "inputs": [
        {
          "indexed": false,
          "name": "id",
          "type": "address"
        }
      ],
      "name": "DestroyEvent",
      "type": "event"
    },
    {
      "anonymous": false,
      "inputs": [
        {
          "indexed": true,
          "name": "previousOwner",
          "type": "address"
        },
        {
          "indexed": true,
          "name": "newOwner",
          "type": "address"
        }
      ],
      "name": "OwnershipTransferred",
      "type": "event"
    },
    {
      "constant": false,
      "inputs": [],
      "name": "register",
      "outputs": [],
      "payable": true,
      "stateMutability": "payable",
      "type": "function"
    },
    {
      "constant": false,
      "inputs": [],
      "name": "withdraw",
      "outputs": [],
      "payable": false,
      "stateMutability": "nonpayable",
      "type": "function"
    },
    {
      "constant": true,
      "inputs": [],
      "name": "totalBalance",
      "outputs": [
        {
          "name": "",
          "type": "uint256"
        }
      ],
      "payable": false,
      "stateMutability": "view",
      "type": "function"
    },
    {
      "constant": true,
      "inputs": [
        {
          "name": "_addr",
          "type": "address"
        }
      ],
      "name": "isRegistered",
      "outputs": [
        {
          "name": "",
          "type": "bool"
        }
      ],
      "payable": false,
      "stateMutability": "view",
      "type": "function"
    },
    {
      "constant": true,
      "inputs": [
        {
          "name": "_addr",
          "type": "address"
        }
      ],
      "name": "isAttended",
      "outputs": [
        {
          "name": "",
          "type": "bool"
        }
      ],
      "payable": false,
      "stateMutability": "view",
      "type": "function"
    },
    {
      "constant": true,
      "inputs": [
        {
          "name": "_addr",
          "type": "address"
        }
      ],
      "name": "isPaid",
      "outputs": [
        {
          "name": "",
          "type": "bool"
        }
      ],
      "payable": false,
      "stateMutability": "view",
      "type": "function"
    },
    {
      "constant": true,
      "inputs": [],
      "name": "payout",
      "outputs": [
        {
          "name": "",
          "type": "uint256"
        }
      ],
      "payable": false,
      "stateMutability": "view",
      "type": "function"
    },
    {
      "constant": false,
      "inputs": [],
      "name": "payback",
      "outputs": [],
      "payable": false,
      "stateMutability": "nonpayable",
      "type": "function"
    },
    {
      "constant": false,
      "inputs": [],
      "name": "cancel",
      "outputs": [],
      "payable": false,
      "stateMutability": "nonpayable",
      "type": "function"
    },
    {
      "constant": false,
      "inputs": [],
      "name": "clear",
      "outputs": [],
      "payable": false,
      "stateMutability": "nonpayable",
      "type": "function"
    },
    {
      "constant": false,
      "inputs": [
        {
          "name": "_limitOfParticipants",
          "type": "uint256"
        }
      ],
      "name": "setLimitOfParticipants",
      "outputs": [],
      "payable": false,
      "stateMutability": "nonpayable",
      "type": "function"
    },
    {
      "constant": false,
      "inputs": [
        {
          "name": "_name",
          "type": "string"
        }
      ],
      "name": "changeName",
      "outputs": [],
      "payable": false,
      "stateMutability": "nonpayable",
      "type": "function"
    },
    {
      "constant": false,
      "inputs": [
        {
          "name": "_addresses",
          "type": "address[]"
        }
      ],
      "name": "attend",
      "outputs": [],
      "payable": false,
      "stateMutability": "nonpayable",
      "type": "function"
    },
    {
      "constant": true,
      "inputs": [],
      "name": "isFull",
      "outputs": [
        {
          "name": "",
          "type": "bool"
        }
      ],
      "payable": false,
      "stateMutability": "view",
      "type": "function"
    }
  ],
  "bytecode": "0x606060405234156200001057600080fd5b604051608080620020b283398101604052808051906020019091908051906020019091908051906020019091908051906020019091905050336000806101000a81548173ffffffffffffffffffffffffffffffffffffffff021916908373ffffffffffffffffffffffffffffffffffffffff16021790555060008473ffffffffffffffffffffffffffffffffffffffff1614151515620000af57600080fd5b836000806101000a81548173ffffffffffffffffffffffffffffffffffffffff021916908373ffffffffffffffffffffffffffffffffffffffff16021790555060008314151562000107578260028190555062000116565b66470de4df8200006002819055505b6000821415156200012e578160038190555062000137565b60146003819055505b6000811415156200014f57806008819055506200015a565b62093a806008819055505b50505050611f44806200016e6000396000f3006060604052600436106101b7576000357c0100000000000000000000000000000000000000000000000000000000900463ffffffff1680630191dc92146101bc57806305f203d9146101e557806309e69ede1461023f57806312fa6feb146102ce57806314bfd6d0146102fb5780631aa3a0081461035e5780631e3c93521461036857806324d7806c146103c25780632de40ce31461041357806331ae450b1461043c5780633ccfd60b146104a65780633d6a71e4146104bb57806352efea6e146104e45780635353a2d8146104f957806363bd1d4a146105275780636b46c8c3146105505780636d006ae8146105795780636ded82f8146105a257806383197ef0146105f3578063854bec87146106085780638da5cb5b1461061d5780639328beee14610672578063982495c71461069b5780639989a5ae146106c95780639a82a09a146106ec5780639b25cacb14610719578063a07f3a561461077c578063ad7a672f146107cd578063b5e10e9a146107f6578063babd3d9a1461081f578063c3c5a5471461084c578063d0e30db01461089d578063ea8a1af0146108c6578063f2fde38b146108db578063f5074f4114610914575b600080fd5b34156101c757600080fd5b6101cf61094d565b6040518082815260200191505060405180910390f35b34156101f057600080fd5b61023d60048080359060200190820180359060200190808060200260200160405190810160405280939291908181526020018383602002808284378201915050505050509190505061095a565b005b341561024a57600080fd5b610276600480803573ffffffffffffffffffffffffffffffffffffffff16906020019091905050610b8a565b604051808473ffffffffffffffffffffffffffffffffffffffff1673ffffffffffffffffffffffffffffffffffffffff1681526020018315151515815260200182151515158152602001935050505060405180910390f35b34156102d957600080fd5b6102e1610bee565b604051808215151515815260200191505060405180910390f35b341561030657600080fd5b61031c6004808035906020019091905050610c01565b604051808273ffffffffffffffffffffffffffffffffffffffff1673ffffffffffffffffffffffffffffffffffffffff16815260200191505060405180910390f35b610366610c40565b005b341561037357600080fd5b6103c0600480803590602001908201803590602001908080602002602001604051908101604052809392919081815260200183836020028082843782019150505050505091905050610cf6565b005b34156103cd57600080fd5b6103f9600480803573ffffffffffffffffffffffffffffffffffffffff16906020019091905050610e46565b604051808215151515815260200191505060405180910390f35b341561041e57600080fd5b610426610f48565b6040518082815260200191505060405180910390f35b341561044757600080fd5b61044f610f4e565b6040518080602001828103825283818151815260200191508051906020019060200280838360005b83811015610492578082015181840152602081019050610477565b505050509050019250505060405180910390f35b34156104b157600080fd5b6104b9610fe2565b005b34156104c657600080fd5b6104ce6111fa565b6040518082815260200191505060405180910390f35b34156104ef57600080fd5b6104f7611200565b005b341561050457600080fd5b61052560048080359060200190820180359060200191909192905050611386565b005b341561053257600080fd5b61053a611459565b6040518082815260200191505060405180910390f35b341561055b57600080fd5b610563611489565b6040518082815260200191505060405180910390f35b341561058457600080fd5b61058c61148f565b6040518082815260200191505060405180910390f35b34156105ad57600080fd5b6105d9600480803573ffffffffffffffffffffffffffffffffffffffff16906020019091905050611495565b604051808215151515815260200191505060405180910390f35b34156105fe57600080fd5b6106066114ff565b005b341561061357600080fd5b61061b611594565b005b341561062857600080fd5b610630611676565b604051808273ffffffffffffffffffffffffffffffffffffffff1673ffffffffffffffffffffffffffffffffffffffff16815260200191505060405180910390f35b341561067d57600080fd5b61068561169b565b6040518082815260200191505060405180910390f35b34156106a657600080fd5b6106c7600480803590602001908201803590602001919091929050506116a1565b005b34156106d457600080fd5b6106ea600480803590602001909190505061181d565b005b34156106f757600080fd5b6106ff61189e565b604051808215151515815260200191505060405180910390f35b341561072457600080fd5b61073a60048080359060200190919050506118b1565b604051808273ffffffffffffffffffffffffffffffffffffffff1673ffffffffffffffffffffffffffffffffffffffff16815260200191505060405180910390f35b341561078757600080fd5b6107b3600480803573ffffffffffffffffffffffffffffffffffffffff169060200190919050506118e4565b604051808215151515815260200191505060405180910390f35b34156107d857600080fd5b6107e061194e565b6040518082815260200191505060405180910390f35b341561080157600080fd5b61080961196d565b6040518082815260200191505060405180910390f35b341561082a57600080fd5b610832611973565b604051808215151515815260200191505060405180910390f35b341561085757600080fd5b610883600480803573ffffffffffffffffffffffffffffffffffffffff16906020019091905050611992565b604051808215151515815260200191505060405180910390f35b34156108a857600080fd5b6108b0611a2d565b6040518082815260200191505060405180910390f35b34156108d157600080fd5b6108d9611a33565b005b34156108e657600080fd5b610912600480803573ffffffffffffffffffffffffffffffffffffffff16906020019091905050611b1e565b005b341561091f57600080fd5b61094b600480803573ffffffffffffffffffffffffffffffffffffffff16906020019091905050611c73565b005b6000600180549050905090565b6000806000809054906101000a900473ffffffffffffffffffffffffffffffffffffffff1673ffffffffffffffffffffffffffffffffffffffff163373ffffffffffffffffffffffffffffffffffffffff161415156109b857600080fd5b600091505b8251821015610b8557600090505b600180549050811015610b785782828151811015156109e657fe5b9060200190602002015173ffffffffffffffffffffffffffffffffffffffff16600182815481101515610a1557fe5b906000526020600020900160009054906101000a900473ffffffffffffffffffffffffffffffffffffffff1673ffffffffffffffffffffffffffffffffffffffff161415610b6b57600180808054905003815481101515610a7257fe5b906000526020600020900160009054906101000a900473ffffffffffffffffffffffffffffffffffffffff16600182815481101515610aad57fe5b906000526020600020900160006101000a81548173ffffffffffffffffffffffffffffffffffffffff021916908373ffffffffffffffffffffffffffffffffffffffff1602179055506001805480919060019003610b0b9190611e87565b508282815181101515610b1a57fe5b9060200190602002015173ffffffffffffffffffffffffffffffffffffffff167f631ff1c4e1a02c54b480a34b810e03bcee61fe38efcb243930a7f820914923e260405160405180910390a2610b78565b80806001019150506109cb565b81806001019250506109bd565b505050565b600a6020528060005260406000206000915090508060000160009054906101000a900473ffffffffffffffffffffffffffffffffffffffff16908060000160149054906101000a900460ff16908060000160159054906101000a900460ff16905083565b600660009054906101000a900460ff1681565b600181815481101515610c1057fe5b90600052602060002090016000915054906101000a900473ffffffffffffffffffffffffffffffffffffffff1681565b6000600660009054906101000a900460ff16151515610c5e57600080fd5b610c66611ce7565b610c6e611973565b90507fb5c6453901cb12768521abc23abd71a4a27340b483a39144958eeaaaca959a963360045460035484604051808573ffffffffffffffffffffffffffffffffffffffff1673ffffffffffffffffffffffffffffffffffffffff1681526020018481526020018381526020018215151515815260200194505050505060405180910390a150565b60008060009054906101000a900473ffffffffffffffffffffffffffffffffffffffff1673ffffffffffffffffffffffffffffffffffffffff163373ffffffffffffffffffffffffffffffffffffffff16141515610d5357600080fd5b600090505b8151811015610e425760018054806001018281610d759190611eb3565b916000526020600020900160008484815181101515610d9057fe5b90602001906020020151909190916101000a81548173ffffffffffffffffffffffffffffffffffffffff021916908373ffffffffffffffffffffffffffffffffffffffff160217905550508181815181101515610de957fe5b9060200190602002015173ffffffffffffffffffffffffffffffffffffffff167f1c4e23de8d72c94b22992bd4d7b6786b215ba876af214ff63e6a0ca38fc97af460405160405180910390a28080600101915050610d58565b5050565b6000806000809054906101000a900473ffffffffffffffffffffffffffffffffffffffff1673ffffffffffffffffffffffffffffffffffffffff168373ffffffffffffffffffffffffffffffffffffffff161415610ea75760019150610f42565b600090505b600180549050811015610f3d578273ffffffffffffffffffffffffffffffffffffffff16600182815481101515610edf57fe5b906000526020600020900160009054906101000a900473ffffffffffffffffffffffffffffffffffffffff1673ffffffffffffffffffffffffffffffffffffffff161415610f305760019150610f42565b8080600101915050610eac565b600091505b50919050565b60045481565b610f56611edf565b6001805480602002602001604051908101604052809291908181526020018280548015610fd857602002820191906000526020600020905b8160009054906101000a900473ffffffffffffffffffffffffffffffffffffffff1673ffffffffffffffffffffffffffffffffffffffff1681526020019060010190808311610f8e575b5050505050905090565b6000600660009054906101000a900460ff161515610fff57600080fd5b600060095411151561101057600080fd5b600a60003373ffffffffffffffffffffffffffffffffffffffff1673ffffffffffffffffffffffffffffffffffffffff16815260200190815260200160002090503373ffffffffffffffffffffffffffffffffffffffff168160000160009054906101000a900473ffffffffffffffffffffffffffffffffffffffff1673ffffffffffffffffffffffffffffffffffffffff161415156110af57600080fd5b600660019054906101000a900460ff16806110d857508060000160149054906101000a900460ff165b15156110e357600080fd5b600015158160000160159054906101000a900460ff16151514151561110757600080fd5b60018160000160156101000a81548160ff0219169083151502179055508060000160009054906101000a900473ffffffffffffffffffffffffffffffffffffffff1673ffffffffffffffffffffffffffffffffffffffff166108fc6009549081150290604051600060405180830381858888f19350505050151561118a57600080fd5b7f5dba113b49cfa7c90315e8e604e6b506f7abcb909b01dcb19ec39005086e68fc33600954604051808373ffffffffffffffffffffffffffffffffffffffff1673ffffffffffffffffffffffffffffffffffffffff1681526020018281526020019250505060405180910390a150565b60075481565b60008060009054906101000a900473ffffffffffffffffffffffffffffffffffffffff1673ffffffffffffffffffffffffffffffffffffffff163373ffffffffffffffffffffffffffffffffffffffff1614151561125d57600080fd5b600660009054906101000a900460ff16151561127857600080fd5b600854600754014211151561128c57600080fd5b61129461194e565b90506000809054906101000a900473ffffffffffffffffffffffffffffffffffffffff1673ffffffffffffffffffffffffffffffffffffffff166108fc829081150290604051600060405180830381858888f1935050505015156112f757600080fd5b7f61355a34c3bc2e502a24eba7ad2fb0fd0d05c4f71de8cb041fbe39cd3649665e6000809054906101000a900473ffffffffffffffffffffffffffffffffffffffff1682604051808373ffffffffffffffffffffffffffffffffffffffff1673ffffffffffffffffffffffffffffffffffffffff1681526020018281526020019250505060405180910390a150565b6000809054906101000a900473ffffffffffffffffffffffffffffffffffffffff1673ffffffffffffffffffffffffffffffffffffffff163373ffffffffffffffffffffffffffffffffffffffff161415156113e157600080fd5b60006004541415156113f257600080fd5b60008282905011151561140457600080fd5b7f50cccf40d174cba784cc6c10d8511123e07dbfcbbfe39e7e0ace01675a688bc28282604051808060200182810382528484828181526020019250808284378201915050935050505060405180910390a15050565b600080600554141561146e5760009050611486565b60055461147961194e565b81151561148257fe5b0490505b90565b60095481565b60035481565b60006114a082611992565b80156114f85750600a60008373ffffffffffffffffffffffffffffffffffffffff1673ffffffffffffffffffffffffffffffffffffffff16815260200190815260200160002060000160159054906101000a900460ff165b9050919050565b6000809054906101000a900473ffffffffffffffffffffffffffffffffffffffff1673ffffffffffffffffffffffffffffffffffffffff163373ffffffffffffffffffffffffffffffffffffffff1614151561155a57600080fd5b6000809054906101000a900473ffffffffffffffffffffffffffffffffffffffff1673ffffffffffffffffffffffffffffffffffffffff16ff5b6000809054906101000a900473ffffffffffffffffffffffffffffffffffffffff1673ffffffffffffffffffffffffffffffffffffffff163373ffffffffffffffffffffffffffffffffffffffff161415156115ef57600080fd5b600660009054906101000a900460ff1615151561160b57600080fd5b611613611459565b6009819055506001600660006101000a81548160ff021916908315150217905550426007819055507fb7152de35affc741a6b2355d37e9caf51fe847cacfccd414be5e15996ff7e6c66009546040518082815260200191505060405180910390a1565b6000809054906101000a900473ffffffffffffffffffffffffffffffffffffffff1681565b60085481565b6000806116ad33610e46565b15156116b857600080fd5b600660009054906101000a900460ff161515156116d457600080fd5b600091505b838390508210156118175783838381811015156116f257fe5b9050602002013573ffffffffffffffffffffffffffffffffffffffff16905061171a81611992565b151561172557600080fd5b61172e816118e4565b15151561173a57600080fd5b7f1c5e7a37dd4095194684d8f835d2c81b686d64d685032055a7cd02edc7c49ed881604051808273ffffffffffffffffffffffffffffffffffffffff1673ffffffffffffffffffffffffffffffffffffffff16815260200191505060405180910390a16001600a60008373ffffffffffffffffffffffffffffffffffffffff1673ffffffffffffffffffffffffffffffffffffffff16815260200190815260200160002060000160146101000a81548160ff02191690831515021790555060056000815480929190600101919050555081806001019250506116d9565b50505050565b6000809054906101000a900473ffffffffffffffffffffffffffffffffffffffff1673ffffffffffffffffffffffffffffffffffffffff163373ffffffffffffffffffffffffffffffffffffffff1614151561187857600080fd5b600660009054906101000a900460ff1615151561189457600080fd5b8060038190555050565b600660019054906101000a900460ff1681565b600b6020528060005260406000206000915054906101000a900473ffffffffffffffffffffffffffffffffffffffff1681565b60006118ef82611992565b80156119475750600a60008373ffffffffffffffffffffffffffffffffffffffff1673ffffffffffffffffffffffffffffffffffffffff16815260200190815260200160002060000160149054906101000a900460ff165b9050919050565b60003073ffffffffffffffffffffffffffffffffffffffff1631905090565b60055481565b6000600354600454101561198a576000905061198f565b600190505b90565b60008073ffffffffffffffffffffffffffffffffffffffff16600a60008473ffffffffffffffffffffffffffffffffffffffff1673ffffffffffffffffffffffffffffffffffffffff16815260200190815260200160002060000160009054906101000a900473ffffffffffffffffffffffffffffffffffffffff1673ffffffffffffffffffffffffffffffffffffffff1614159050919050565b60025481565b6000809054906101000a900473ffffffffffffffffffffffffffffffffffffffff1673ffffffffffffffffffffffffffffffffffffffff163373ffffffffffffffffffffffffffffffffffffffff16141515611a8e57600080fd5b600660009054906101000a900460ff16151515611aaa57600080fd5b6002546009819055506001600660016101000a81548160ff0219169083151502179055506001600660006101000a81548160ff021916908315150217905550426007819055507faac5ae2dfd439bb6c2f88b2d8af5b285cfee7584ad0d13ae7c00c1226c7c4c7b60405160405180910390a1565b6000809054906101000a900473ffffffffffffffffffffffffffffffffffffffff1673ffffffffffffffffffffffffffffffffffffffff163373ffffffffffffffffffffffffffffffffffffffff16141515611b7957600080fd5b600073ffffffffffffffffffffffffffffffffffffffff168173ffffffffffffffffffffffffffffffffffffffff1614151515611bb557600080fd5b8073ffffffffffffffffffffffffffffffffffffffff166000809054906101000a900473ffffffffffffffffffffffffffffffffffffffff1673ffffffffffffffffffffffffffffffffffffffff167f8be0079c531659141344cd1fd0a4f28419497f9722a3daafe3b4186f6b6457e060405160405180910390a3806000806101000a81548173ffffffffffffffffffffffffffffffffffffffff021916908373ffffffffffffffffffffffffffffffffffffffff16021790555050565b6000809054906101000a900473ffffffffffffffffffffffffffffffffffffffff1673ffffffffffffffffffffffffffffffffffffffff163373ffffffffffffffffffffffffffffffffffffffff16141515611cce57600080fd5b8073ffffffffffffffffffffffffffffffffffffffff16ff5b60025434141515611cf757600080fd5b600354600454101515611d0957600080fd5b611d1233611992565b151515611d1e57600080fd5b60046000815480929190600101919050555033600b6000600454815260200190815260200160002060006101000a81548173ffffffffffffffffffffffffffffffffffffffff021916908373ffffffffffffffffffffffffffffffffffffffff1602179055506060604051908101604052803373ffffffffffffffffffffffffffffffffffffffff16815260200160001515815260200160001515815250600a60003373ffffffffffffffffffffffffffffffffffffffff1673ffffffffffffffffffffffffffffffffffffffff16815260200190815260200160002060008201518160000160006101000a81548173ffffffffffffffffffffffffffffffffffffffff021916908373ffffffffffffffffffffffffffffffffffffffff16021790555060208201518160000160146101000a81548160ff02191690831515021790555060408201518160000160156101000a81548160ff021916908315150217905550905050565b815481835581811511611eae57818360005260206000209182019101611ead9190611ef3565b5b505050565b815481835581811511611eda57818360005260206000209182019101611ed99190611ef3565b5b505050565b602060405190810160405280600081525090565b611f1591905b80821115611f11576000816000905550600101611ef9565b5090565b905600a165627a7a723058207bdb9a6eafaff3512fe5bd116a96cdcf0d5dcfd946cb322a970bfc5762b7c7490029",
  "source": "pragma solidity 0.4.21;\n\nimport \"./GroupAdmin.sol\";\nimport \"../zeppelin/lifecycle/Destructible.sol\";\n\ncontract Conference is Destructible, GroupAdmin {    \n    // string public name;\n    uint256 public deposit;\n    uint public limitOfParticipants;\n    uint public registered;\n    uint public attended;\n    bool public ended;\n    bool public cancelled;\n    uint public endedAt;\n    uint public coolingPeriod;\n    uint256 public payoutAmount;\n    // string public description;\n    // uint public date;\n    // bytes8 public geohash;\n\n    mapping (address => Participant) public participants;\n    mapping (uint => address) public participantsIndex;\n\n    struct Participant {\n        address addr;\n        bool attended;\n        bool paid;\n    }\n\n    event RegisterEvent(address addr, uint registered, uint limitOfParticipants, bool isFull);\n    event AttendEvent(address addr);\n    event PaybackEvent(uint256 _payout);\n    event WithdrawEvent(address addr, uint256 _payout);\n    event CancelEvent();\n    event ClearEvent(address addr, uint256 leftOver);\n    event ChangeNameEvent(string name);\n\n    /* Modifiers */\n    modifier onlyActive {\n        require(!ended);\n        _;\n    }\n\n    modifier noOneRegistered {\n        require(registered == 0);\n        _;\n    }\n\n    modifier onlyEnded {\n        require(ended);\n        _;\n    }\n\n    /* Public functions */\n    /**\n     * @dev Construcotr.\n     * @param _owner Address of the owner of the event, group admin\n     * @param _deposit The amount each participant deposits. The default is set to 0.02 Ether. The amount cannot be changed once deployed.\n     * @param _limitOfParticipants The number of participant. The default is set to 20. The number can be changed by the owner of the event.\n     * @param _coolingPeriod The period participants should withdraw their deposit after the event ends. After the cooling period, the event owner can claim the remining deposits.\n     */\n    function Conference (\n        address _owner,\n        // string _name,\n        uint256 _deposit,\n        uint _limitOfParticipants,\n        uint _coolingPeriod\n        // string _description,\n        // uint _date,\n        // bytes8 _geohash\n    ) public {\n        require(_owner != 0x0);\n        \n        owner = _owner;\n\n        // if (bytes(_name).length != 0){\n        //     name = _name;\n        // } else {\n        //     name = \"Test\";\n        // }\n\n        if(_deposit != 0){\n            deposit = _deposit;\n        }else{\n            deposit = 0.02 ether;\n        }\n\n        if (_limitOfParticipants != 0){\n            limitOfParticipants = _limitOfParticipants;\n        }else{\n            limitOfParticipants = 20;\n        }\n\n        if (_coolingPeriod != 0) {\n            coolingPeriod = _coolingPeriod;\n        } else {\n            coolingPeriod = 1 weeks;\n        }\n\n        // if (bytes(_description).length != 0) {\n        //     description = _description;\n        // } else {\n        //     description = \"Test\";\n        // }\n\n        // if (_date != 0) {\n        //     date = _date;\n        // } else {\n        //     date = block.timestamp;\n        // }\n\n        // if (_geohash.length != 0) {\n        //     geohash = _geohash;\n        // } else {\n        //     geohash = 0x0;\n        // }\n    }\n\n    /**\n     * @dev Registers message sender.\n     */\n    function register() external payable onlyActive{\n        registerInternal();\n        bool full = isFull();\n        emit RegisterEvent(msg.sender, registered, limitOfParticipants, full);\n    }\n\n    /**\n     * @dev The internal function to register participant\n     */\n    function registerInternal() internal {\n        require(msg.value == deposit);\n        require(registered < limitOfParticipants);\n        require(!isRegistered(msg.sender));\n\n        registered++;\n        participantsIndex[registered] = msg.sender;\n        participants[msg.sender] = Participant(msg.sender, false, false);\n    }\n\n    /**\n     * @dev Withdraws deposit after the event is over.\n     */\n    function withdraw() external onlyEnded{\n        require(payoutAmount > 0);\n        Participant storage participant = participants[msg.sender];\n        require(participant.addr == msg.sender);\n        require(cancelled || participant.attended);\n        require(participant.paid == false);\n\n        participant.paid = true;\n        participant.addr.transfer(payoutAmount);\n        emit WithdrawEvent(msg.sender, payoutAmount);\n    }\n\n    /* Constants */\n    /**\n     * @dev Returns total balance of the contract. This function can be deprecated when refactroing front end code.\n     * @return The total balance of the contract.\n     */\n    function totalBalance() view public returns (uint256){\n        return address(this).balance;\n    }\n\n    /**\n     * @dev Returns true if the given user is registered.\n     * @param _addr The address of a participant.\n     * @return True if the address exists in the pariticipant list.\n     */\n    function isRegistered(address _addr) view public returns (bool){\n        return participants[_addr].addr != address(0);\n    }\n\n    /**\n     * @dev Returns true if the given user is attended.\n     * @param _addr The address of a participant.\n     * @return True if the user is marked as attended by admin.\n     */\n    function isAttended(address _addr) view public returns (bool){\n        return isRegistered(_addr) && participants[_addr].attended;\n    }\n\n    /**\n     * @dev Returns true if the given user has withdrawn his/her deposit.\n     * @param _addr The address of a participant.\n     * @return True if the attendee has withdrawn his/her deposit.\n     */\n    function isPaid(address _addr) view public returns (bool){\n        return isRegistered(_addr) && participants[_addr].paid;\n    }\n\n    /**\n     * @dev Show the payout amount each participant can withdraw.\n     * @return The amount each participant can withdraw.\n     */\n    function payout() view public returns(uint256){\n        if (attended == 0) return 0;\n        return uint(totalBalance()) / uint(attended);\n    }\n\n    /* Admin only functions */\n\n    /**\n     * @dev Ends the event by owner\n     */\n    function payback() external onlyOwner onlyActive{\n        payoutAmount = payout();\n        ended = true;\n        endedAt = now;\n        emit PaybackEvent(payoutAmount);\n    }\n\n    /**\n     * @dev Cancels the event by owner. When the event is canceled each participant can withdraw their deposit back.\n     */\n    function cancel() external onlyOwner onlyActive{\n        payoutAmount = deposit;\n        cancelled = true;\n        ended = true;\n        endedAt = now;\n        emit CancelEvent();\n    }\n\n    /**\n    * @dev The event owner transfer the outstanding deposits  if there are any unclaimed deposits after cooling period\n    */\n    function clear() external onlyOwner onlyEnded{\n        require(now > endedAt + coolingPeriod);\n        uint leftOver = totalBalance();\n        owner.transfer(leftOver);\n        emit ClearEvent(owner, leftOver);\n    }\n\n    /**\n     * @dev Change the capacity of the event. The owner can change it until event is over.\n     * @param _limitOfParticipants the number of the capacity of the event.\n     */\n    function setLimitOfParticipants(uint _limitOfParticipants) external onlyOwner onlyActive{\n        limitOfParticipants = _limitOfParticipants;\n    }\n\n    /**\n     * @dev Change the name of the event. The owner can change it as long as no one has registered yet.\n     * @param _name the name of the event.\n     */\n    function changeName(string _name) external onlyOwner noOneRegistered{\n        // name = _name;\n        require(bytes(_name).length > 0);\n        emit ChangeNameEvent(_name);\n    }\n\n    /**\n     * @dev Mark participants as attended. The attendance cannot be undone.\n     * @param _addresses The list of participant's address.\n     */\n    function attend(address[] _addresses) external onlyAdmin onlyActive{\n        for( uint i = 0; i < _addresses.length; i++){\n            address _addr = _addresses[i];\n            require(isRegistered(_addr));\n            require(!isAttended(_addr));\n            emit AttendEvent(_addr);\n            participants[_addr].attended = true;\n            attended++;\n        }\n    }\n\n    function isFull() public view returns(bool) {\n        if (registered < limitOfParticipants) {\n            return false;\n        } else {\n            return true;\n        }\n    }\n}\n",
  "sourcePath": "/Users/jackleslie/Desktop/Hackathons/meet-up/contracts/blockparty/Conference.sol",
  "compiler": {
    "name": "solc",
    "version": "0.4.21+commit.dfe3193c.Emscripten.clang"
  },
  "schemaVersion": "2.0.0",
  "updatedAt": "2018-09-09T09:38:30.938Z"
}