{
  "contractName": "EnsResolverMock",
  "abi": [
    {
      "constant": true,
      "inputs": [
        {
          "name": "",
          "type": "bytes32"
        }
      ],
      "name": "targets",
      "outputs": [
        {
          "name": "",
          "type": "address"
        }
      ],
      "payable": false,
      "stateMutability": "view",
      "type": "function",
      "signature": "0xb73673f7"
    },
    {
      "constant": false,
      "inputs": [
        {
          "name": "_node",
          "type": "bytes32"
        },
        {
          "name": "_addr",
          "type": "address"
        }
      ],
      "name": "setAddr",
      "outputs": [],
      "payable": false,
      "stateMutability": "nonpayable",
      "type": "function",
      "signature": "0xd5fa2b00"
    }
  ],
  "bytecode": "0x608060405234801561001057600080fd5b506101cf806100206000396000f30060806040526004361061004c576000357c0100000000000000000000000000000000000000000000000000000000900463ffffffff168063b73673f714610051578063d5fa2b00146100c2575b600080fd5b34801561005d57600080fd5b506100806004803603810190808035600019169060200190929190505050610113565b604051808273ffffffffffffffffffffffffffffffffffffffff1673ffffffffffffffffffffffffffffffffffffffff16815260200191505060405180910390f35b3480156100ce57600080fd5b506101116004803603810190808035600019169060200190929190803573ffffffffffffffffffffffffffffffffffffffff169060200190929190505050610146565b005b60006020528060005260406000206000915054906101000a900473ffffffffffffffffffffffffffffffffffffffff1681565b80600080846000191660001916815260200190815260200160002060006101000a81548173ffffffffffffffffffffffffffffffffffffffff021916908373ffffffffffffffffffffffffffffffffffffffff16021790555050505600a165627a7a72305820e4685e5916cf181527bc3feec5db4139a33fd20391b8277da0e932f44247b3d00029",
  "source": "pragma solidity ^0.4.23;\n\nimport \"./EnsResolver.sol\";\n\n/**\n* @title EnsResolverMock\n*/\ncontract EnsResolverMock is EnsResolver {\n    mapping(bytes32 => address) public targets;\n\n    function setAddr(bytes32 _node, address _addr) public {\n        targets[_node] = _addr;\n    }\n}",
  "sourcePath": "/Users/jackleslie/Desktop/Hackathons/meet-up/contracts/radek1st/EnsResolverMock.sol",
  "compiler": {
    "name": "solc",
    "version": "0.4.24+commit.e67f0147.Emscripten.clang"
  },
  "schemaVersion": "3.0.0-beta.0",
  "updatedAt": "2018-09-08T22:52:46.347Z"
}