{
  "contractName": "EnsRegistryMock",
  "abi": [
    {
      "constant": true,
      "inputs": [
        {
          "name": "",
          "type": "bytes32"
        }
      ],
      "name": "resolvers",
      "outputs": [
        {
          "name": "",
          "type": "address"
        }
      ],
      "payable": false,
      "stateMutability": "view",
      "type": "function"
    },
    {
      "constant": false,
      "inputs": [
        {
          "name": "_node",
          "type": "bytes32"
        },
        {
          "name": "_owner",
          "type": "address"
        }
      ],
      "name": "setOwner",
      "outputs": [],
      "payable": false,
      "stateMutability": "nonpayable",
      "type": "function"
    },
    {
      "constant": false,
      "inputs": [
        {
          "name": "_node",
          "type": "bytes32"
        },
        {
          "name": "_label",
          "type": "bytes32"
        },
        {
          "name": "_owner",
          "type": "address"
        }
      ],
      "name": "setSubnodeOwner",
      "outputs": [],
      "payable": false,
      "stateMutability": "nonpayable",
      "type": "function"
    },
    {
      "constant": false,
      "inputs": [
        {
          "name": "_node",
          "type": "bytes32"
        },
        {
          "name": "_resolver",
          "type": "address"
        }
      ],
      "name": "setResolver",
      "outputs": [],
      "payable": false,
      "stateMutability": "nonpayable",
      "type": "function"
    },
    {
      "constant": true,
      "inputs": [
        {
          "name": "_node",
          "type": "bytes32"
        }
      ],
      "name": "owner",
      "outputs": [
        {
          "name": "",
          "type": "address"
        }
      ],
      "payable": false,
      "stateMutability": "view",
      "type": "function"
    }
  ],
  "bytecode": "0x608060405234801561001057600080fd5b506104aa806100206000396000f30060806040526004361061006d576000357c0100000000000000000000000000000000000000000000000000000000900463ffffffff16806302571be31461007257806306ab5923146100e35780631896f70a146101425780635b0fc9c314610193578063c3a7bb90146101e4575b600080fd5b34801561007e57600080fd5b506100a16004803603810190808035600019169060200190929190505050610255565b604051808273ffffffffffffffffffffffffffffffffffffffff1673ffffffffffffffffffffffffffffffffffffffff16815260200191505060405180910390f35b3480156100ef57600080fd5b5061014060048036038101908080356000191690602001909291908035600019169060200190929190803573ffffffffffffffffffffffffffffffffffffffff169060200190929190505050610299565b005b34801561014e57600080fd5b506101916004803603810190808035600019169060200190929190803573ffffffffffffffffffffffffffffffffffffffff169060200190929190505050610390565b005b34801561019f57600080fd5b506101e26004803603810190808035600019169060200190929190803573ffffffffffffffffffffffffffffffffffffffff1690602001909291905050506103ee565b005b3480156101f057600080fd5b50610213600480360381019080803560001916906020019092919050505061044b565b604051808273ffffffffffffffffffffffffffffffffffffffff1673ffffffffffffffffffffffffffffffffffffffff16815260200191505060405180910390f35b6000806000836000191660001916815260200190815260200160002060009054906101000a900473ffffffffffffffffffffffffffffffffffffffff169050919050565b8060008085856040516020018083600019166000191681526020018260001916600019168152602001925050506040516020818303038152906040526040518082805190602001908083835b60208310151561030a57805182526020820191506020810190506020830392506102e5565b6001836020036101000a03801982511681845116808217855250505050505090500191505060405180910390206000191660001916815260200190815260200160002060006101000a81548173ffffffffffffffffffffffffffffffffffffffff021916908373ffffffffffffffffffffffffffffffffffffffff160217905550505050565b8060016000846000191660001916815260200190815260200160002060006101000a81548173ffffffffffffffffffffffffffffffffffffffff021916908373ffffffffffffffffffffffffffffffffffffffff1602179055505050565b80600080846000191660001916815260200190815260200160002060006101000a81548173ffffffffffffffffffffffffffffffffffffffff021916908373ffffffffffffffffffffffffffffffffffffffff1602179055505050565b60016020528060005260406000206000915054906101000a900473ffffffffffffffffffffffffffffffffffffffff16815600a165627a7a72305820e2523e0e4a345551f2940e8a824d684dbc1b8f12705ac7558dcf3feb2ae8860a0029",
  "source": "pragma solidity ^0.4.23;\n\nimport \"./EnsRegistry.sol\";\n\n/**\n* @title EnsRegistryMock\n*/\ncontract EnsRegistryMock is EnsRegistry {\n    mapping(bytes32 => address) owners;\n    mapping(bytes32 => address) public resolvers;\n\n    function setOwner(bytes32 _node, address _owner) public {\n        owners[_node] = _owner;\n    }\n\n    function setSubnodeOwner(bytes32 _node, bytes32 _label, address _owner) public {\n        owners[keccak256(abi.encodePacked(_node, _label))] = _owner;\n    }\n\n    function setResolver(bytes32 _node, address _resolver) public {\n        resolvers[_node] = _resolver;\n    }\n\n    function owner(bytes32 _node) public view returns (address){\n        return owners[_node];\n    }\n}",
  "sourcePath": "/Users/dominikdnd/Desktop/ETHBerlin/meetup/meet-up/contracts/radek1st/EnsRegistryMock.sol",
  "compiler": {
    "name": "solc",
    "version": "0.4.24+commit.e67f0147.Emscripten.clang"
  },
  "schemaVersion": "2.0.1",
  "updatedAt": "2018-09-09T05:32:40.706Z"
}