{
  "contractName": "EnsSubdomainFactory",
  "abi": [
    {
      "constant": true,
      "inputs": [],
      "name": "resolver",
      "outputs": [
        {
          "name": "",
          "type": "address"
        }
      ],
      "payable": false,
      "stateMutability": "view",
      "type": "function",
      "signature": "0x04f3bcec"
    },
    {
      "constant": true,
      "inputs": [],
      "name": "registry",
      "outputs": [
        {
          "name": "",
          "type": "address"
        }
      ],
      "payable": false,
      "stateMutability": "view",
      "type": "function",
      "signature": "0x7b103999"
    },
    {
      "constant": true,
      "inputs": [],
      "name": "owner",
      "outputs": [
        {
          "name": "",
          "type": "address"
        }
      ],
      "payable": false,
      "stateMutability": "view",
      "type": "function",
      "signature": "0x8da5cb5b"
    },
    {
      "constant": true,
      "inputs": [],
      "name": "locked",
      "outputs": [
        {
          "name": "",
          "type": "bool"
        }
      ],
      "payable": false,
      "stateMutability": "view",
      "type": "function",
      "signature": "0xcf309012"
    },
    {
      "constant": false,
      "inputs": [
        {
          "name": "newOwner",
          "type": "address"
        }
      ],
      "name": "transferOwnership",
      "outputs": [],
      "payable": false,
      "stateMutability": "nonpayable",
      "type": "function",
      "signature": "0xf2fde38b"
    },
    {
      "inputs": [
        {
          "name": "_registry",
          "type": "address"
        },
        {
          "name": "_resolver",
          "type": "address"
        }
      ],
      "payable": false,
      "stateMutability": "nonpayable",
      "type": "constructor",
      "signature": "constructor"
    },
    {
      "anonymous": false,
      "inputs": [
        {
          "indexed": false,
          "name": "target",
          "type": "address"
        },
        {
          "indexed": true,
          "name": "creator",
          "type": "address"
        },
        {
          "indexed": true,
          "name": "owner",
          "type": "address"
        },
        {
          "indexed": false,
          "name": "subdomain",
          "type": "string"
        },
        {
          "indexed": false,
          "name": "domain",
          "type": "string"
        }
      ],
      "name": "SubdomainCreated",
      "type": "event",
      "signature": "0x102b475f457fe671d8068be99b9340ad91b035c97d1cdac2f7d540a39b661ede"
    },
    {
      "anonymous": false,
      "inputs": [
        {
          "indexed": true,
          "name": "previousOwner",
          "type": "address"
        },
        {
          "indexed": true,
          "name": "newOwner",
          "type": "address"
        }
      ],
      "name": "OwnershipTransferred",
      "type": "event",
      "signature": "0x8be0079c531659141344cd1fd0a4f28419497f9722a3daafe3b4186f6b6457e0"
    },
    {
      "anonymous": false,
      "inputs": [
        {
          "indexed": true,
          "name": "previousRegistry",
          "type": "address"
        },
        {
          "indexed": true,
          "name": "newRegistry",
          "type": "address"
        }
      ],
      "name": "RegistryUpdated",
      "type": "event",
      "signature": "0x482b97c53e48ffa324a976e2738053e9aff6eee04d8aac63b10e19411d869b82"
    },
    {
      "anonymous": false,
      "inputs": [
        {
          "indexed": true,
          "name": "previousResolver",
          "type": "address"
        },
        {
          "indexed": true,
          "name": "newResolver",
          "type": "address"
        }
      ],
      "name": "ResolverUpdated",
      "type": "event",
      "signature": "0x84b83d2b66cac119ccaaca68b476b0dc5371d5f2fd27f697770a910175fd38b6"
    },
    {
      "anonymous": false,
      "inputs": [],
      "name": "DomainTransfersLocked",
      "type": "event",
      "signature": "0xd68bbea4b8d77ea0826a260170e3b50080b57c9ed7420ef5920b1a58e613e179"
    },
    {
      "constant": false,
      "inputs": [
        {
          "name": "_subdomain",
          "type": "string"
        },
        {
          "name": "_domain",
          "type": "string"
        },
        {
          "name": "_owner",
          "type": "address"
        },
        {
          "name": "_target",
          "type": "address"
        }
      ],
      "name": "newSubdomain",
      "outputs": [],
      "payable": false,
      "stateMutability": "nonpayable",
      "type": "function",
      "signature": "0xcd4b3c57"
    },
    {
      "constant": true,
      "inputs": [
        {
          "name": "_domain",
          "type": "string"
        }
      ],
      "name": "domainOwner",
      "outputs": [
        {
          "name": "",
          "type": "address"
        }
      ],
      "payable": false,
      "stateMutability": "view",
      "type": "function",
      "signature": "0x18d95092"
    },
    {
      "constant": true,
      "inputs": [
        {
          "name": "_subdomain",
          "type": "string"
        },
        {
          "name": "_domain",
          "type": "string"
        }
      ],
      "name": "subdomainOwner",
      "outputs": [
        {
          "name": "",
          "type": "address"
        }
      ],
      "payable": false,
      "stateMutability": "view",
      "type": "function",
      "signature": "0xb0698763"
    },
    {
      "constant": false,
      "inputs": [
        {
          "name": "_node",
          "type": "bytes32"
        },
        {
          "name": "_owner",
          "type": "address"
        }
      ],
      "name": "transferDomainOwnership",
      "outputs": [],
      "payable": false,
      "stateMutability": "nonpayable",
      "type": "function",
      "signature": "0x1dc9a3b9"
    },
    {
      "constant": false,
      "inputs": [],
      "name": "lockDomainOwnershipTransfers",
      "outputs": [],
      "payable": false,
      "stateMutability": "nonpayable",
      "type": "function",
      "signature": "0x7dd45999"
    },
    {
      "constant": false,
      "inputs": [
        {
          "name": "_registry",
          "type": "address"
        }
      ],
      "name": "updateRegistry",
      "outputs": [],
      "payable": false,
      "stateMutability": "nonpayable",
      "type": "function",
      "signature": "0x1a5da6c8"
    },
    {
      "constant": false,
      "inputs": [
        {
          "name": "_resolver",
          "type": "address"
        }
      ],
      "name": "updateResolver",
      "outputs": [],
      "payable": false,
      "stateMutability": "nonpayable",
      "type": "function",
      "signature": "0xe6fe39ed"
    }
  ],
  "bytecode": "0x60806040527f7cb6c9ce54d6fba5d4f3008113677a8dbd765729ceed52dda637e002895280df60010260039060001916905534801561003d57600080fd5b5060405160408061216e8339810180604052810190808051906020019092919080519060200190929190505050336000806101000a81548173ffffffffffffffffffffffffffffffffffffffff021916908373ffffffffffffffffffffffffffffffffffffffff16021790555081600160006101000a81548173ffffffffffffffffffffffffffffffffffffffff021916908373ffffffffffffffffffffffffffffffffffffffff16021790555080600260006101000a81548173ffffffffffffffffffffffffffffffffffffffff021916908373ffffffffffffffffffffffffffffffffffffffff1602179055506000600260146101000a81548160ff0219169083151502179055505050612016806101586000396000f3006080604052600436106100ba576000357c0100000000000000000000000000000000000000000000000000000000900463ffffffff16806304f3bcec146100bf57806318d95092146101165780631a5da6c8146101bf5780631dc9a3b9146102025780637b103999146102535780637dd45999146102aa5780638da5cb5b146102c1578063b069876314610318578063cd4b3c5714610407578063cf309012146104f6578063e6fe39ed14610525578063f2fde38b14610568575b600080fd5b3480156100cb57600080fd5b506100d46105ab565b604051808273ffffffffffffffffffffffffffffffffffffffff1673ffffffffffffffffffffffffffffffffffffffff16815260200191505060405180910390f35b34801561012257600080fd5b5061017d600480360381019080803590602001908201803590602001908080601f01602080910402602001604051908101604052809392919081815260200183838082843782019150505050505091929192905050506105d1565b604051808273ffffffffffffffffffffffffffffffffffffffff1673ffffffffffffffffffffffffffffffffffffffff16815260200191505060405180910390f35b3480156101cb57600080fd5b50610200600480360381019080803573ffffffffffffffffffffffffffffffffffffffff16906020019092919050505061081c565b005b34801561020e57600080fd5b506102516004803603810190808035600019169060200190929190803573ffffffffffffffffffffffffffffffffffffffff169060200190929190505050610a23565b005b34801561025f57600080fd5b50610268610b83565b604051808273ffffffffffffffffffffffffffffffffffffffff1673ffffffffffffffffffffffffffffffffffffffff16815260200191505060405180910390f35b3480156102b657600080fd5b506102bf610ba9565b005b3480156102cd57600080fd5b506102d6610c69565b604051808273ffffffffffffffffffffffffffffffffffffffff1673ffffffffffffffffffffffffffffffffffffffff16815260200191505060405180910390f35b34801561032457600080fd5b506103c5600480360381019080803590602001908201803590602001908080601f0160208091040260200160405190810160405280939291908181526020018383808284378201915050505050509192919290803590602001908201803590602001908080601f0160208091040260200160405190810160405280939291908181526020018383808284378201915050505050509192919290505050610c8e565b604051808273ffffffffffffffffffffffffffffffffffffffff1673ffffffffffffffffffffffffffffffffffffffff16815260200191505060405180910390f35b34801561041357600080fd5b506104f4600480360381019080803590602001908201803590602001908080601f0160208091040260200160405190810160405280939291908181526020018383808284378201915050505050509192919290803590602001908201803590602001908080601f0160208091040260200160405190810160405280939291908181526020018383808284378201915050505050509192919290803573ffffffffffffffffffffffffffffffffffffffff169060200190929190803573ffffffffffffffffffffffffffffffffffffffff169060200190929190505050611047565b005b34801561050257600080fd5b5061050b611c7b565b604051808215151515815260200191505060405180910390f35b34801561053157600080fd5b50610566600480360381019080803573ffffffffffffffffffffffffffffffffffffffff169060200190929190505050611c8e565b005b34801561057457600080fd5b506105a9600480360381019080803573ffffffffffffffffffffffffffffffffffffffff169060200190929190505050611e95565b005b600260009054906101000a900473ffffffffffffffffffffffffffffffffffffffff1681565b600080600354836040516020018082805190602001908083835b60208310151561061057805182526020820191506020810190506020830392506105eb565b6001836020036101000a0380198251168184511680821785525050505050509050019150506040516020818303038152906040526040518082805190602001908083835b6020831015156106795780518252602082019150602081019050602083039250610654565b6001836020036101000a03801982511681845116808217855250505050505090500191505060405180910390206040516020018083600019166000191681526020018260001916600019168152602001925050506040516020818303038152906040526040518082805190602001908083835b60208310151561071157805182526020820191506020810190506020830392506106ec565b6001836020036101000a03801982511681845116808217855250505050505090500191505060405180910390209050600160009054906101000a900473ffffffffffffffffffffffffffffffffffffffff1673ffffffffffffffffffffffffffffffffffffffff166302571be3826040518263ffffffff167c0100000000000000000000000000000000000000000000000000000000028152600401808260001916600019168152602001915050602060405180830381600087803b1580156107d957600080fd5b505af11580156107ed573d6000803e3d6000fd5b505050506040513d602081101561080357600080fd5b8101908080519060200190929190505050915050919050565b6000809054906101000a900473ffffffffffffffffffffffffffffffffffffffff1673ffffffffffffffffffffffffffffffffffffffff163373ffffffffffffffffffffffffffffffffffffffff1614151561087757600080fd5b8073ffffffffffffffffffffffffffffffffffffffff16600160009054906101000a900473ffffffffffffffffffffffffffffffffffffffff1673ffffffffffffffffffffffffffffffffffffffff1614151515610963576040517f08c379a00000000000000000000000000000000000000000000000000000000081526004018080602001828103825260298152602001807f6e65772072656769737472792073686f756c6420626520646966666572656e7481526020017f2066726f6d206f6c64000000000000000000000000000000000000000000000081525060400191505060405180910390fd5b8073ffffffffffffffffffffffffffffffffffffffff16600160009054906101000a900473ffffffffffffffffffffffffffffffffffffffff1673ffffffffffffffffffffffffffffffffffffffff167f482b97c53e48ffa324a976e2738053e9aff6eee04d8aac63b10e19411d869b8260405160405180910390a380600160006101000a81548173ffffffffffffffffffffffffffffffffffffffff021916908373ffffffffffffffffffffffffffffffffffffffff16021790555050565b6000809054906101000a900473ffffffffffffffffffffffffffffffffffffffff1673ffffffffffffffffffffffffffffffffffffffff163373ffffffffffffffffffffffffffffffffffffffff16141515610a7e57600080fd5b600260149054906101000a900460ff16151515610a9a57600080fd5b600160009054906101000a900473ffffffffffffffffffffffffffffffffffffffff1673ffffffffffffffffffffffffffffffffffffffff16635b0fc9c383836040518363ffffffff167c01000000000000000000000000000000000000000000000000000000000281526004018083600019166000191681526020018273ffffffffffffffffffffffffffffffffffffffff1673ffffffffffffffffffffffffffffffffffffffff16815260200192505050600060405180830381600087803b158015610b6757600080fd5b505af1158015610b7b573d6000803e3d6000fd5b505050505050565b600160009054906101000a900473ffffffffffffffffffffffffffffffffffffffff1681565b6000809054906101000a900473ffffffffffffffffffffffffffffffffffffffff1673ffffffffffffffffffffffffffffffffffffffff163373ffffffffffffffffffffffffffffffffffffffff16141515610c0457600080fd5b600260149054906101000a900460ff16151515610c2057600080fd5b6001600260146101000a81548160ff0219169083151502179055507fd68bbea4b8d77ea0826a260170e3b50080b57c9ed7420ef5920b1a58e613e17960405160405180910390a1565b6000809054906101000a900473ffffffffffffffffffffffffffffffffffffffff1681565b6000806000600354846040516020018082805190602001908083835b602083101515610ccf5780518252602082019150602081019050602083039250610caa565b6001836020036101000a0380198251168184511680821785525050505050509050019150506040516020818303038152906040526040518082805190602001908083835b602083101515610d385780518252602082019150602081019050602083039250610d13565b6001836020036101000a03801982511681845116808217855250505050505090500191505060405180910390206040516020018083600019166000191681526020018260001916600019168152602001925050506040516020818303038152906040526040518082805190602001908083835b602083101515610dd05780518252602082019150602081019050602083039250610dab565b6001836020036101000a0380198251168184511680821785525050505050509050019150506040518091039020915081856040516020018082805190602001908083835b602083101515610e395780518252602082019150602081019050602083039250610e14565b6001836020036101000a0380198251168184511680821785525050505050509050019150506040516020818303038152906040526040518082805190602001908083835b602083101515610ea25780518252602082019150602081019050602083039250610e7d565b6001836020036101000a03801982511681845116808217855250505050505090500191505060405180910390206040516020018083600019166000191681526020018260001916600019168152602001925050506040516020818303038152906040526040518082805190602001908083835b602083101515610f3a5780518252602082019150602081019050602083039250610f15565b6001836020036101000a03801982511681845116808217855250505050505090500191505060405180910390209050600160009054906101000a900473ffffffffffffffffffffffffffffffffffffffff1673ffffffffffffffffffffffffffffffffffffffff166302571be3826040518263ffffffff167c0100000000000000000000000000000000000000000000000000000000028152600401808260001916600019168152602001915050602060405180830381600087803b15801561100257600080fd5b505af1158015611016573d6000803e3d6000fd5b505050506040513d602081101561102c57600080fd5b81019080805190602001909291905050509250505092915050565b6000806000600354866040516020018082805190602001908083835b6020831015156110885780518252602082019150602081019050602083039250611063565b6001836020036101000a0380198251168184511680821785525050505050509050019150506040516020818303038152906040526040518082805190602001908083835b6020831015156110f157805182526020820191506020810190506020830392506110cc565b6001836020036101000a03801982511681845116808217855250505050505090500191505060405180910390206040516020018083600019166000191681526020018260001916600019168152602001925050506040516020818303038152906040526040518082805190602001908083835b6020831015156111895780518252602082019150602081019050602083039250611164565b6001836020036101000a038019825116818451168082178552505050505050905001915050604051809103902092503073ffffffffffffffffffffffffffffffffffffffff16600160009054906101000a900473ffffffffffffffffffffffffffffffffffffffff1673ffffffffffffffffffffffffffffffffffffffff166302571be3856040518263ffffffff167c0100000000000000000000000000000000000000000000000000000000028152600401808260001916600019168152602001915050602060405180830381600087803b15801561126857600080fd5b505af115801561127c573d6000803e3d6000fd5b505050506040513d602081101561129257600080fd5b810190808051906020019092919050505073ffffffffffffffffffffffffffffffffffffffff16141515611354576040517f08c379a00000000000000000000000000000000000000000000000000000000081526004018080602001828103825260238152602001807f7468697320636f6e74726163742073686f756c64206f776e2074686520646f6d81526020017f61696e000000000000000000000000000000000000000000000000000000000081525060400191505060405180910390fd5b866040516020018082805190602001908083835b60208310151561138d5780518252602082019150602081019050602083039250611368565b6001836020036101000a0380198251168184511680821785525050505050509050019150506040516020818303038152906040526040518082805190602001908083835b6020831015156113f657805182526020820191506020810190506020830392506113d1565b6001836020036101000a0380198251168184511680821785525050505050509050019150506040518091039020915082826040516020018083600019166000191681526020018260001916600019168152602001925050506040516020818303038152906040526040518082805190602001908083835b602083101515611492578051825260208201915060208101905060208303925061146d565b6001836020036101000a03801982511681845116808217855250505050505090500191505060405180910390209050600073ffffffffffffffffffffffffffffffffffffffff16600160009054906101000a900473ffffffffffffffffffffffffffffffffffffffff1673ffffffffffffffffffffffffffffffffffffffff166302571be3836040518263ffffffff167c0100000000000000000000000000000000000000000000000000000000028152600401808260001916600019168152602001915050602060405180830381600087803b15801561157257600080fd5b505af1158015611586573d6000803e3d6000fd5b505050506040513d602081101561159c57600080fd5b810190808051906020019092919050505073ffffffffffffffffffffffffffffffffffffffff1614806116cd57503373ffffffffffffffffffffffffffffffffffffffff16600160009054906101000a900473ffffffffffffffffffffffffffffffffffffffff1673ffffffffffffffffffffffffffffffffffffffff166302571be3836040518263ffffffff167c0100000000000000000000000000000000000000000000000000000000028152600401808260001916600019168152602001915050602060405180830381600087803b15801561167a57600080fd5b505af115801561168e573d6000803e3d6000fd5b505050506040513d60208110156116a457600080fd5b810190808051906020019092919050505073ffffffffffffffffffffffffffffffffffffffff16145b1515611741576040517f08c379a00000000000000000000000000000000000000000000000000000000081526004018080602001828103825260188152602001807f73756220646f6d61696e20616c7265616479206f776e6564000000000000000081525060200191505060405180910390fd5b600160009054906101000a900473ffffffffffffffffffffffffffffffffffffffff1673ffffffffffffffffffffffffffffffffffffffff166306ab59238484306040518463ffffffff167c010000000000000000000000000000000000000000000000000000000002815260040180846000191660001916815260200183600019166000191681526020018273ffffffffffffffffffffffffffffffffffffffff1673ffffffffffffffffffffffffffffffffffffffff1681526020019350505050600060405180830381600087803b15801561181e57600080fd5b505af1158015611832573d6000803e3d6000fd5b50505050600160009054906101000a900473ffffffffffffffffffffffffffffffffffffffff1673ffffffffffffffffffffffffffffffffffffffff16631896f70a82600260009054906101000a900473ffffffffffffffffffffffffffffffffffffffff166040518363ffffffff167c01000000000000000000000000000000000000000000000000000000000281526004018083600019166000191681526020018273ffffffffffffffffffffffffffffffffffffffff1673ffffffffffffffffffffffffffffffffffffffff16815260200192505050600060405180830381600087803b15801561192557600080fd5b505af1158015611939573d6000803e3d6000fd5b50505050600260009054906101000a900473ffffffffffffffffffffffffffffffffffffffff1673ffffffffffffffffffffffffffffffffffffffff1663d5fa2b0082866040518363ffffffff167c01000000000000000000000000000000000000000000000000000000000281526004018083600019166000191681526020018273ffffffffffffffffffffffffffffffffffffffff1673ffffffffffffffffffffffffffffffffffffffff16815260200192505050600060405180830381600087803b158015611a0a57600080fd5b505af1158015611a1e573d6000803e3d6000fd5b50505050600160009054906101000a900473ffffffffffffffffffffffffffffffffffffffff1673ffffffffffffffffffffffffffffffffffffffff16635b0fc9c382876040518363ffffffff167c01000000000000000000000000000000000000000000000000000000000281526004018083600019166000191681526020018273ffffffffffffffffffffffffffffffffffffffff1673ffffffffffffffffffffffffffffffffffffffff16815260200192505050600060405180830381600087803b158015611aef57600080fd5b505af1158015611b03573d6000803e3d6000fd5b505050508473ffffffffffffffffffffffffffffffffffffffff163373ffffffffffffffffffffffffffffffffffffffff167f102b475f457fe671d8068be99b9340ad91b035c97d1cdac2f7d540a39b661ede868a8a604051808473ffffffffffffffffffffffffffffffffffffffff1673ffffffffffffffffffffffffffffffffffffffff1681526020018060200180602001838103835285818151815260200191508051906020019080838360005b83811015611bcf578082015181840152602081019050611bb4565b50505050905090810190601f168015611bfc5780820380516001836020036101000a031916815260200191505b50838103825284818151815260200191508051906020019080838360005b83811015611c35578082015181840152602081019050611c1a565b50505050905090810190601f168015611c625780820380516001836020036101000a031916815260200191505b509550505050505060405180910390a350505050505050565b600260149054906101000a900460ff1681565b6000809054906101000a900473ffffffffffffffffffffffffffffffffffffffff1673ffffffffffffffffffffffffffffffffffffffff163373ffffffffffffffffffffffffffffffffffffffff16141515611ce957600080fd5b8073ffffffffffffffffffffffffffffffffffffffff16600260009054906101000a900473ffffffffffffffffffffffffffffffffffffffff1673ffffffffffffffffffffffffffffffffffffffff1614151515611dd5576040517f08c379a00000000000000000000000000000000000000000000000000000000081526004018080602001828103825260298152602001807f6e6577207265736f6c7665722073686f756c6420626520646966666572656e7481526020017f2066726f6d206f6c64000000000000000000000000000000000000000000000081525060400191505060405180910390fd5b8073ffffffffffffffffffffffffffffffffffffffff16600260009054906101000a900473ffffffffffffffffffffffffffffffffffffffff1673ffffffffffffffffffffffffffffffffffffffff167f84b83d2b66cac119ccaaca68b476b0dc5371d5f2fd27f697770a910175fd38b660405160405180910390a380600260006101000a81548173ffffffffffffffffffffffffffffffffffffffff021916908373ffffffffffffffffffffffffffffffffffffffff16021790555050565b6000809054906101000a900473ffffffffffffffffffffffffffffffffffffffff1673ffffffffffffffffffffffffffffffffffffffff163373ffffffffffffffffffffffffffffffffffffffff16141515611ef057600080fd5b600073ffffffffffffffffffffffffffffffffffffffff168173ffffffffffffffffffffffffffffffffffffffff1614151515611f2c57600080fd5b8073ffffffffffffffffffffffffffffffffffffffff166000809054906101000a900473ffffffffffffffffffffffffffffffffffffffff1673ffffffffffffffffffffffffffffffffffffffff167f8be0079c531659141344cd1fd0a4f28419497f9722a3daafe3b4186f6b6457e060405160405180910390a3806000806101000a81548173ffffffffffffffffffffffffffffffffffffffff021916908373ffffffffffffffffffffffffffffffffffffffff160217905550505600a165627a7a723058201ef255d149c3939af25c9e515a699f76a84720746fb6c4e338d33e520bc18c2b0029",
  "source": "pragma solidity ^0.4.23;\n\nimport \"./EnsRegistry.sol\";\nimport \"./EnsResolver.sol\";\nimport \"../zeppelin/ownership/Ownable.sol\";\n\n// ---------------------------------------------------------------------------------------------------\n// EnsSubdomainFactory - allows creating and configuring custom ENS subdomains with one contract call.\n//\n// @author Radek Ostrowski / https://startonchain.com - MIT Licence.\n// Source: https://github.com/radek1st/ens-subdomain-factory\n// ---------------------------------------------------------------------------------------------------\n\n/**\n * @title EnsSubdomainFactory\n * @dev Allows to create and configure a subdomain for Ethereum ENS in one call.\n * After deploying this contract, change the owner of the domain you want to use\n * to this deployed contract address. For example, transfer the ownership of \"startonchain.eth\"\n * so anyone can create subdomains like \"radek.startonchain.eth\".\n */\ncontract EnsSubdomainFactory is Ownable{\n\tEnsRegistry public registry;\n\tEnsResolver public resolver;\n\tbool public locked;\n\tbytes32 ethNamehash = 0x7cb6c9ce54d6fba5d4f3008113677a8dbd765729ceed52dda637e002895280df;\n\n\tevent SubdomainCreated(address target, address indexed creator, address indexed owner, string subdomain, string domain);\n\tevent OwnershipTransferred(address indexed previousOwner, address indexed newOwner);\n\tevent RegistryUpdated(address indexed previousRegistry, address indexed newRegistry);\n\tevent ResolverUpdated(address indexed previousResolver, address indexed newResolver);\n\tevent DomainTransfersLocked();\n\n\tconstructor(EnsRegistry _registry, EnsResolver _resolver) public {\n\t\tregistry = _registry;\n\t\tresolver = _resolver;\n\t\tlocked = false;\n\t}\n\n\t/**\n\t\t* @dev Allows to create a subdomain (e.g. \"radek.startonchain.eth\"), \n\t\t* set its resolver and set its target address\n\t\t* @param _subdomain - sub domain name only e.g. \"radek\"\n\t\t* @param _domain - parent domain name e.g. \"startonchain\"\n\t\t* @param _owner - address that will become owner of this new subdomain\n\t\t* @param _target - address that this new domain will resolve to\n\t\t*/\n\tfunction newSubdomain(string _subdomain, string _domain, address _owner, address _target) public {\n\t\t//create namehash for the domain\n\t\tbytes32 domainNamehash = keccak256(abi.encodePacked(ethNamehash, keccak256(abi.encodePacked(_domain))));\n\t\t//make sure this contract owns the domain\n\t\trequire(registry.owner(domainNamehash) == address(this), \"this contract should own the domain\");\n\t\t//create labelhash for the sub domain\n\t\tbytes32 subdomainLabelhash = keccak256(abi.encodePacked(_subdomain));\n\t\t//create namehash for the sub domain\n\t\tbytes32 subdomainNamehash = keccak256(abi.encodePacked(domainNamehash, subdomainLabelhash));\n\t\t//make sure it is free or owned by the sender\n\t\trequire(registry.owner(subdomainNamehash) == address(0) ||\n\t\t\tregistry.owner(subdomainNamehash) == msg.sender, \"sub domain already owned\");\n\t\t//create new subdomain, temporarily this smartcontract is the owner\n\t\tregistry.setSubnodeOwner(domainNamehash, subdomainLabelhash, address(this));\n\t\t//set public resolver for this domain\n\t\tregistry.setResolver(subdomainNamehash, resolver);\n\t\t//set the destination address\n\t\tresolver.setAddr(subdomainNamehash, _target);\n\t\t//change the ownership back to requested owner\n\t\tregistry.setOwner(subdomainNamehash, _owner);\n\t\t\n\t\temit SubdomainCreated(_target, msg.sender, _owner, _subdomain, _domain);\n\t}\n\n\t/**\n\t\t* @dev Returns the owner of a domain (e.g. \"startonchain.eth\"),\n\t\t* @param _domain - domain name e.g. \"startonchain\"\n\t\t*/\n\tfunction domainOwner(string _domain) public view returns(address) {\n\t\tbytes32 namehash = keccak256(abi.encodePacked(ethNamehash, keccak256(abi.encodePacked(_domain))));\n\t\treturn registry.owner(namehash);\n\t}\n\n\t/**\n\t\t* @dev Return the owner of a subdomain (e.g. \"radek.startonchain.eth\"), \n\t\t* @param _subdomain - sub domain name only e.g. \"radek\"\n\t\t* @param _domain - parent domain name e.g. \"startonchain\"\n\t\t*/\n\tfunction subdomainOwner(string _subdomain, string _domain) public view returns(address) {\n\t\tbytes32 domainNamehash = keccak256(abi.encodePacked(ethNamehash, keccak256(abi.encodePacked(_domain))));\n\t\tbytes32 subdomainNamehash = keccak256(abi.encodePacked(domainNamehash, keccak256(abi.encodePacked(_subdomain))));\n\t\treturn registry.owner(subdomainNamehash);\n\t}\n\n\t/**\n\t\t* @dev The contract owner can take away the ownership of any domain owned by this contract.\n\t\t* @param _node - namehash of the domain\n\t\t* @param _owner - new owner for the domain\n\t\t*/\n\tfunction transferDomainOwnership(bytes32 _node, address _owner) public onlyOwner {\n\t\trequire(!locked);\n\t\tregistry.setOwner(_node, _owner);\n\t}\n\n\t/**\n\t\t* @dev The contract owner can lock and prevent any future domain ownership transfers.\n\t\t*/\n\tfunction lockDomainOwnershipTransfers() public onlyOwner {\n\t\trequire(!locked);\n\t\tlocked = true;\n\t\temit DomainTransfersLocked();\n\t}\n\n\t/**\n\t\t* @dev Allows to update to new ENS registry.\n\t\t* @param _registry The address of new ENS registry to use.\n\t\t*/\n\tfunction updateRegistry(EnsRegistry _registry) public onlyOwner {\n\t\trequire(registry != _registry, \"new registry should be different from old\");\n\t\temit RegistryUpdated(registry, _registry);\n\t\tregistry = _registry;\n\t}\n\n\t/**\n\t\t* @dev Allows to update to new ENS resolver.\n\t\t* @param _resolver The address of new ENS resolver to use.\n\t\t*/\n\tfunction updateResolver(EnsResolver _resolver) public onlyOwner {\n\t\trequire(resolver != _resolver, \"new resolver should be different from old\");\n\t\temit ResolverUpdated(resolver, _resolver);\n\t\tresolver = _resolver;\n\t}\n}",
  "sourcePath": "/Users/jackleslie/Desktop/Hackathons/meet-up/contracts/radek1st/EnsSubdomainFactory.sol",
  "compiler": {
    "name": "solc",
    "version": "0.4.24+commit.e67f0147.Emscripten.clang"
  },
  "schemaVersion": "3.0.0-beta.0",
  "updatedAt": "2018-09-09T07:48:51.004Z"
}