{
  "contractName": "GroupAdmin",
  "abi": [
    {
      "constant": true,
      "inputs": [
        {
          "name": "",
          "type": "uint256"
        }
      ],
      "name": "admins",
      "outputs": [
        {
          "name": "",
          "type": "address"
        }
      ],
      "payable": false,
      "stateMutability": "view",
      "type": "function"
    },
    {
      "constant": true,
      "inputs": [],
      "name": "owner",
      "outputs": [
        {
          "name": "",
          "type": "address"
        }
      ],
      "payable": false,
      "stateMutability": "view",
      "type": "function"
    },
    {
      "constant": false,
      "inputs": [
        {
          "name": "newOwner",
          "type": "address"
        }
      ],
      "name": "transferOwnership",
      "outputs": [],
      "payable": false,
      "stateMutability": "nonpayable",
      "type": "function"
    },
    {
      "anonymous": false,
      "inputs": [
        {
          "indexed": true,
          "name": "grantee",
          "type": "address"
        }
      ],
      "name": "AdminGranted",
      "type": "event"
    },
    {
      "anonymous": false,
      "inputs": [
        {
          "indexed": true,
          "name": "grantee",
          "type": "address"
        }
      ],
      "name": "AdminRevoked",
      "type": "event"
    },
    {
      "anonymous": false,
      "inputs": [
        {
          "indexed": true,
          "name": "previousOwner",
          "type": "address"
        },
        {
          "indexed": true,
          "name": "newOwner",
          "type": "address"
        }
      ],
      "name": "OwnershipTransferred",
      "type": "event"
    },
    {
      "constant": false,
      "inputs": [
        {
          "name": "newAdmins",
          "type": "address[]"
        }
      ],
      "name": "grant",
      "outputs": [],
      "payable": false,
      "stateMutability": "nonpayable",
      "type": "function"
    },
    {
      "constant": false,
      "inputs": [
        {
          "name": "oldAdmins",
          "type": "address[]"
        }
      ],
      "name": "revoke",
      "outputs": [],
      "payable": false,
      "stateMutability": "nonpayable",
      "type": "function"
    },
    {
      "constant": true,
      "inputs": [],
      "name": "getAdmins",
      "outputs": [
        {
          "name": "",
          "type": "address[]"
        }
      ],
      "payable": false,
      "stateMutability": "view",
      "type": "function"
    },
    {
      "constant": true,
      "inputs": [],
      "name": "numOfAdmins",
      "outputs": [
        {
          "name": "",
          "type": "uint256"
        }
      ],
      "payable": false,
      "stateMutability": "view",
      "type": "function"
    },
    {
      "constant": true,
      "inputs": [
        {
          "name": "admin",
          "type": "address"
        }
      ],
      "name": "isAdmin",
      "outputs": [
        {
          "name": "",
          "type": "bool"
        }
      ],
      "payable": false,
      "stateMutability": "view",
      "type": "function"
    }
  ],
  "bytecode": "0x6060604052336000806101000a81548173ffffffffffffffffffffffffffffffffffffffff021916908373ffffffffffffffffffffffffffffffffffffffff160217905550610ab5806100536000396000f30060606040526004361061008e576000357c0100000000000000000000000000000000000000000000000000000000900463ffffffff1680630191dc921461009357806305f203d9146100bc57806314bfd6d0146101165780631e3c93521461017957806324d7806c146101d357806331ae450b146102245780638da5cb5b1461028e578063f2fde38b146102e3575b600080fd5b341561009e57600080fd5b6100a661031c565b6040518082815260200191505060405180910390f35b34156100c757600080fd5b610114600480803590602001908201803590602001908080602002602001604051908101604052809392919081815260200183836020028082843782019150505050505091905050610329565b005b341561012157600080fd5b6101376004808035906020019091905050610559565b604051808273ffffffffffffffffffffffffffffffffffffffff1673ffffffffffffffffffffffffffffffffffffffff16815260200191505060405180910390f35b341561018457600080fd5b6101d1600480803590602001908201803590602001908080602002602001604051908101604052809392919081815260200183836020028082843782019150505050505091905050610598565b005b34156101de57600080fd5b61020a600480803573ffffffffffffffffffffffffffffffffffffffff169060200190919050506106e8565b604051808215151515815260200191505060405180910390f35b341561022f57600080fd5b6102376107ea565b6040518080602001828103825283818151815260200191508051906020019060200280838360005b8381101561027a57808201518184015260208101905061025f565b505050509050019250505060405180910390f35b341561029957600080fd5b6102a161087e565b604051808273ffffffffffffffffffffffffffffffffffffffff1673ffffffffffffffffffffffffffffffffffffffff16815260200191505060405180910390f35b34156102ee57600080fd5b61031a600480803573ffffffffffffffffffffffffffffffffffffffff169060200190919050506108a3565b005b6000600180549050905090565b6000806000809054906101000a900473ffffffffffffffffffffffffffffffffffffffff1673ffffffffffffffffffffffffffffffffffffffff163373ffffffffffffffffffffffffffffffffffffffff1614151561038757600080fd5b600091505b825182101561055457600090505b6001805490508110156105475782828151811015156103b557fe5b9060200190602002015173ffffffffffffffffffffffffffffffffffffffff166001828154811015156103e457fe5b906000526020600020900160009054906101000a900473ffffffffffffffffffffffffffffffffffffffff1673ffffffffffffffffffffffffffffffffffffffff16141561053a5760018080805490500381548110151561044157fe5b906000526020600020900160009054906101000a900473ffffffffffffffffffffffffffffffffffffffff1660018281548110151561047c57fe5b906000526020600020900160006101000a81548173ffffffffffffffffffffffffffffffffffffffff021916908373ffffffffffffffffffffffffffffffffffffffff16021790555060018054809190600190036104da91906109f8565b5082828151811015156104e957fe5b9060200190602002015173ffffffffffffffffffffffffffffffffffffffff167f631ff1c4e1a02c54b480a34b810e03bcee61fe38efcb243930a7f820914923e260405160405180910390a2610547565b808060010191505061039a565b818060010192505061038c565b505050565b60018181548110151561056857fe5b90600052602060002090016000915054906101000a900473ffffffffffffffffffffffffffffffffffffffff1681565b60008060009054906101000a900473ffffffffffffffffffffffffffffffffffffffff1673ffffffffffffffffffffffffffffffffffffffff163373ffffffffffffffffffffffffffffffffffffffff161415156105f557600080fd5b600090505b81518110156106e457600180548060010182816106179190610a24565b91600052602060002090016000848481518110151561063257fe5b90602001906020020151909190916101000a81548173ffffffffffffffffffffffffffffffffffffffff021916908373ffffffffffffffffffffffffffffffffffffffff16021790555050818181518110151561068b57fe5b9060200190602002015173ffffffffffffffffffffffffffffffffffffffff167f1c4e23de8d72c94b22992bd4d7b6786b215ba876af214ff63e6a0ca38fc97af460405160405180910390a280806001019150506105fa565b5050565b6000806000809054906101000a900473ffffffffffffffffffffffffffffffffffffffff1673ffffffffffffffffffffffffffffffffffffffff168373ffffffffffffffffffffffffffffffffffffffff16141561074957600191506107e4565b600090505b6001805490508110156107df578273ffffffffffffffffffffffffffffffffffffffff1660018281548110151561078157fe5b906000526020600020900160009054906101000a900473ffffffffffffffffffffffffffffffffffffffff1673ffffffffffffffffffffffffffffffffffffffff1614156107d257600191506107e4565b808060010191505061074e565b600091505b50919050565b6107f2610a50565b600180548060200260200160405190810160405280929190818152602001828054801561087457602002820191906000526020600020905b8160009054906101000a900473ffffffffffffffffffffffffffffffffffffffff1673ffffffffffffffffffffffffffffffffffffffff168152602001906001019080831161082a575b5050505050905090565b6000809054906101000a900473ffffffffffffffffffffffffffffffffffffffff1681565b6000809054906101000a900473ffffffffffffffffffffffffffffffffffffffff1673ffffffffffffffffffffffffffffffffffffffff163373ffffffffffffffffffffffffffffffffffffffff161415156108fe57600080fd5b600073ffffffffffffffffffffffffffffffffffffffff168173ffffffffffffffffffffffffffffffffffffffff161415151561093a57600080fd5b8073ffffffffffffffffffffffffffffffffffffffff166000809054906101000a900473ffffffffffffffffffffffffffffffffffffffff1673ffffffffffffffffffffffffffffffffffffffff167f8be0079c531659141344cd1fd0a4f28419497f9722a3daafe3b4186f6b6457e060405160405180910390a3806000806101000a81548173ffffffffffffffffffffffffffffffffffffffff021916908373ffffffffffffffffffffffffffffffffffffffff16021790555050565b815481835581811511610a1f57818360005260206000209182019101610a1e9190610a64565b5b505050565b815481835581811511610a4b57818360005260206000209182019101610a4a9190610a64565b5b505050565b602060405190810160405280600081525090565b610a8691905b80821115610a82576000816000905550600101610a6a565b5090565b905600a165627a7a723058204da60d9652689b803d52821471fc1611369a3774f170ae783e3f185ed65cf4250029",
  "source": "pragma solidity 0.4.21;\nimport \"../zeppelin/ownership/Ownable.sol\";\n\n/**\n* @title GroupAdmin\n* @dev The contract allows multiple addresses to perform as admin.\n*/\ncontract GroupAdmin is Ownable {\n    event AdminGranted(address indexed grantee);\n    event AdminRevoked(address indexed grantee);\n    address[] public admins;\n\n    modifier onlyAdmin() {\n        require(isAdmin(msg.sender));\n        _;\n    }\n\n    /**\n    * @dev Grants admin right to given addresses.\n    * @param newAdmins An array of addresses\n    */\n    function grant(address[] newAdmins) public onlyOwner{\n        for(uint i = 0; i < newAdmins.length; i++){\n            admins.push(newAdmins[i]);\n            emit AdminGranted(newAdmins[i]);\n        }\n    }\n\n    /**\n    * @dev Revoke admin right from given addresses.\n    * @param oldAdmins An array of addresses\n    */\n    function revoke(address[] oldAdmins) public onlyOwner{\n        for(uint oldIdx = 0; oldIdx < oldAdmins.length; oldIdx++){\n            for (uint idx = 0; idx < admins.length; idx++) {\n                if (admins[idx] == oldAdmins[oldIdx]) {\n                    admins[idx] = admins[admins.length - 1];\n                    admins.length--;\n                    emit AdminRevoked(oldAdmins[oldIdx]);\n                    break;\n                }\n            }\n        }\n    }\n\n    /**\n    * @dev Returns admin addresses\n    * @return Admin addresses\n    */\n    function getAdmins() view public returns(address[]){\n        // todo: include owner;\n        return admins;\n    }\n\n    /**\n    * @dev Returns number of admings.\n    * @return Number of admings.\n    */\n    function numOfAdmins() view public returns(uint){\n        return admins.length;\n    }\n\n    /**\n    * @dev Returns if the given address is admin or not.\n    * @param admin An address.\n    * @return True if the given address is admin.\n    */\n    function isAdmin(address admin) public view returns(bool){\n        if (admin == owner) return true;\n\n        for (uint i = 0; i<admins.length; i++){\n            if (admins[i] == admin){\n                return true;\n            }\n        }\n        return false;\n    }\n}\n",
  "sourcePath": "/Users/jackleslie/Desktop/Hackathons/meet-up/contracts/blockparty/GroupAdmin.sol",
  "compiler": {
    "name": "solc",
    "version": "0.4.21+commit.dfe3193c.Emscripten.clang"
  },
  "schemaVersion": "2.0.0",
  "updatedAt": "2018-09-09T09:38:30.941Z"
}