{
  "contractName": "GroupFactory",
  "abi": [
    {
      "constant": true,
      "inputs": [],
      "name": "owner",
      "outputs": [
        {
          "name": "",
          "type": "address"
        }
      ],
      "payable": false,
      "stateMutability": "view",
      "type": "function"
    },
    {
      "constant": true,
      "inputs": [
        {
          "name": "",
          "type": "uint256"
        }
      ],
      "name": "groups",
      "outputs": [
        {
          "name": "",
          "type": "address"
        }
      ],
      "payable": false,
      "stateMutability": "view",
      "type": "function"
    },
    {
      "constant": false,
      "inputs": [
        {
          "name": "newOwner",
          "type": "address"
        }
      ],
      "name": "transferOwnership",
      "outputs": [],
      "payable": false,
      "stateMutability": "nonpayable",
      "type": "function"
    },
    {
      "anonymous": false,
      "inputs": [
        {
          "indexed": true,
          "name": "id",
          "type": "address"
        },
        {
          "indexed": true,
          "name": "userId",
          "type": "address"
        },
        {
          "indexed": false,
          "name": "name",
          "type": "string"
        },
        {
          "indexed": false,
          "name": "description",
          "type": "string"
        },
        {
          "indexed": false,
          "name": "country",
          "type": "string"
        },
        {
          "indexed": false,
          "name": "region",
          "type": "string"
        },
        {
          "indexed": false,
          "name": "category",
          "type": "string"
        }
      ],
      "name": "CreateGroup",
      "type": "event"
    },
    {
      "anonymous": false,
      "inputs": [
        {
          "indexed": true,
          "name": "previousOwner",
          "type": "address"
        },
        {
          "indexed": true,
          "name": "newOwner",
          "type": "address"
        }
      ],
      "name": "OwnershipTransferred",
      "type": "event"
    },
    {
      "constant": false,
      "inputs": [
        {
          "name": "_name",
          "type": "string"
        },
        {
          "name": "_country",
          "type": "string"
        },
        {
          "name": "_region",
          "type": "string"
        },
        {
          "name": "_category",
          "type": "string"
        },
        {
          "name": "_description",
          "type": "string"
        },
        {
          "name": "_logo",
          "type": "bytes"
        }
      ],
      "name": "createGroup",
      "outputs": [],
      "payable": false,
      "stateMutability": "nonpayable",
      "type": "function"
    }
  ],
  "bytecode": "0x6060604052336000806101000a81548173ffffffffffffffffffffffffffffffffffffffff021916908373ffffffffffffffffffffffffffffffffffffffff1602179055506139a0806100536000396000f300606060405260043610610062576000357c0100000000000000000000000000000000000000000000000000000000900463ffffffff1680638da5cb5b1461006757806396324bd4146100bc578063f2fde38b1461011f578063f47fb52614610158575b600080fd5b341561007257600080fd5b61007a610304565b604051808273ffffffffffffffffffffffffffffffffffffffff1673ffffffffffffffffffffffffffffffffffffffff16815260200191505060405180910390f35b34156100c757600080fd5b6100dd6004808035906020019091905050610329565b604051808273ffffffffffffffffffffffffffffffffffffffff1673ffffffffffffffffffffffffffffffffffffffff16815260200191505060405180910390f35b341561012a57600080fd5b610156600480803573ffffffffffffffffffffffffffffffffffffffff16906020019091905050610368565b005b341561016357600080fd5b610302600480803590602001908201803590602001908080601f0160208091040260200160405190810160405280939291908181526020018383808284378201915050505050509190803590602001908201803590602001908080601f0160208091040260200160405190810160405280939291908181526020018383808284378201915050505050509190803590602001908201803590602001908080601f0160208091040260200160405190810160405280939291908181526020018383808284378201915050505050509190803590602001908201803590602001908080601f0160208091040260200160405190810160405280939291908181526020018383808284378201915050505050509190803590602001908201803590602001908080601f0160208091040260200160405190810160405280939291908181526020018383808284378201915050505050509190803590602001908201803590602001908080601f016020809104026020016040519081016040528093929190818152602001838380828437820191505050505050919050506104bd565b005b6000809054906101000a900473ffffffffffffffffffffffffffffffffffffffff1681565b60018181548110151561033857fe5b90600052602060002090016000915054906101000a900473ffffffffffffffffffffffffffffffffffffffff1681565b6000809054906101000a900473ffffffffffffffffffffffffffffffffffffffff1673ffffffffffffffffffffffffffffffffffffffff163373ffffffffffffffffffffffffffffffffffffffff161415156103c357600080fd5b600073ffffffffffffffffffffffffffffffffffffffff168173ffffffffffffffffffffffffffffffffffffffff16141515156103ff57600080fd5b8073ffffffffffffffffffffffffffffffffffffffff166000809054906101000a900473ffffffffffffffffffffffffffffffffffffffff1673ffffffffffffffffffffffffffffffffffffffff167f8be0079c531659141344cd1fd0a4f28419497f9722a3daafe3b4186f6b6457e060405160405180910390a3806000806101000a81548173ffffffffffffffffffffffffffffffffffffffff021916908373ffffffffffffffffffffffffffffffffffffffff16021790555050565b60008087511115156104ce57600080fd5b600086511115156104de57600080fd5b600085511115156104ee57600080fd5b600084511115156104fe57600080fd5b33826105086108ac565b808373ffffffffffffffffffffffffffffffffffffffff1673ffffffffffffffffffffffffffffffffffffffff16815260200180602001828103825283818151815260200191508051906020019080838360005b8381101561057757808201518184015260208101905061055c565b50505050905090810190601f1680156105a45780820380516001836020036101000a031916815260200191505b509350505050604051809103906000f08015156105c057600080fd5b9050600180548060010182816105d691906108bc565b9160005260206000209001600083909190916101000a81548173ffffffffffffffffffffffffffffffffffffffff021916908373ffffffffffffffffffffffffffffffffffffffff160217905550503373ffffffffffffffffffffffffffffffffffffffff168173ffffffffffffffffffffffffffffffffffffffff167ff4a4e8279e6b6a64fc5a06466b095e259929186b376f598d7d4109a3a493102689868a8a8a60405180806020018060200180602001806020018060200186810386528b818151815260200191508051906020019080838360005b838110156106c95780820151818401526020810190506106ae565b50505050905090810190601f1680156106f65780820380516001836020036101000a031916815260200191505b5086810385528a818151815260200191508051906020019080838360005b8381101561072f578082015181840152602081019050610714565b50505050905090810190601f16801561075c5780820380516001836020036101000a031916815260200191505b50868103845289818151815260200191508051906020019080838360005b8381101561079557808201518184015260208101905061077a565b50505050905090810190601f1680156107c25780820380516001836020036101000a031916815260200191505b50868103835288818151815260200191508051906020019080838360005b838110156107fb5780820151818401526020810190506107e0565b50505050905090810190601f1680156108285780820380516001836020036101000a031916815260200191505b50868103825287818151815260200191508051906020019080838360005b83811015610861578082015181840152602081019050610846565b50505050905090810190601f16801561088e5780820380516001836020036101000a031916815260200191505b509a505050505050505050505060405180910390a350505050505050565b6040516130678061090e83390190565b8154818355818115116108e3578183600052602060002091820191016108e291906108e8565b5b505050565b61090a91905b808211156109065760008160009055506001016108ee565b5090565b905600606060405234156200001057600080fd5b604051620030673803806200306783398101604052808051906020019091908051820191905050336000806101000a81548173ffffffffffffffffffffffffffffffffffffffff021916908373ffffffffffffffffffffffffffffffffffffffff16021790555060008273ffffffffffffffffffffffffffffffffffffffff16141515156200009e57600080fd5b816000806101000a81548173ffffffffffffffffffffffffffffffffffffffff021916908373ffffffffffffffffffffffffffffffffffffffff160217905550600081511415156200010957806001908051906020019062000102929190620001ca565b5062000158565b6040805190810160405280600381526020017f3078300000000000000000000000000000000000000000000000000000000000815250600190805190602001906200015692919062000251565b505b6001600460003373ffffffffffffffffffffffffffffffffffffffff1673ffffffffffffffffffffffffffffffffffffffff16815260200190815260200160002060006101000a81548160ff021916908315150217905550600260008154809291906001019190505550505062000300565b828054600181600116156101000203166002900490600052602060002090601f016020900481019282601f106200020d57805160ff19168380011785556200023e565b828001600101855582156200023e579182015b828111156200023d57825182559160200191906001019062000220565b5b5090506200024d9190620002d8565b5090565b828054600181600116156101000203166002900490600052602060002090601f016020900481019282601f106200029457805160ff1916838001178555620002c5565b82800160010185558215620002c5579182015b82811115620002c4578251825591602001919060010190620002a7565b5b509050620002d49190620002d8565b5090565b620002fd91905b80821115620002f9576000816000905550600101620002df565b5090565b90565b612d5780620003106000396000f3006060604052600436106100a4576000357c0100000000000000000000000000000000000000000000000000000000900463ffffffff16806308ae4b0c146100a95780630b791430146100fa57806311aee3801461015d57806325f290951461018657806383197ef01461026e5780638da5cb5b146102835780639ac79e0a146102d8578063f2fde38b146102ed578063f5074f4114610326578063fb7f21eb1461035f575b600080fd5b34156100b457600080fd5b6100e0600480803573ffffffffffffffffffffffffffffffffffffffff169060200190919050506103ed565b604051808215151515815260200191505060405180910390f35b341561010557600080fd5b61011b600480803590602001909190505061040d565b604051808273ffffffffffffffffffffffffffffffffffffffff1673ffffffffffffffffffffffffffffffffffffffff16815260200191505060405180910390f35b341561016857600080fd5b61017061044c565b6040518082815260200191505060405180910390f35b341561019157600080fd5b61026c600480803590602001908201803590602001908080601f0160208091040260200160405190810160405280939291908181526020018383808284378201915050505050509190803590602001909190803590602001909190803590602001909190803590602001908201803590602001908080601f0160208091040260200160405190810160405280939291908181526020018383808284378201915050505050509190803590602001909190803577ffffffffffffffffffffffffffffffffffffffffffffffff1916906020019091905050610452565b005b341561027957600080fd5b6102816107ea565b005b341561028e57600080fd5b61029661087f565b604051808273ffffffffffffffffffffffffffffffffffffffff1673ffffffffffffffffffffffffffffffffffffffff16815260200191505060405180910390f35b34156102e357600080fd5b6102eb6108a4565b005b34156102f857600080fd5b610324600480803573ffffffffffffffffffffffffffffffffffffffff169060200190919050506109b1565b005b341561033157600080fd5b61035d600480803573ffffffffffffffffffffffffffffffffffffffff16906020019091905050610b06565b005b341561036a57600080fd5b610372610b7a565b6040518080602001828103825283818151815260200191508051906020019080838360005b838110156103b2578082015181840152602081019050610397565b50505050905090810190601f1680156103df5780820380516001836020036101000a031916815260200191505b509250505060405180910390f35b60046020528060005260406000206000915054906101000a900460ff1681565b60038181548110151561041c57fe5b90600052602060002090016000915054906101000a900473ffffffffffffffffffffffffffffffffffffffff1681565b60025481565b60008060009054906101000a900473ffffffffffffffffffffffffffffffffffffffff1673ffffffffffffffffffffffffffffffffffffffff163373ffffffffffffffffffffffffffffffffffffffff161415156104af57600080fd5b600088511115156104bf57600080fd5b6000831115156104ce57600080fd5b60007801000000000000000000000000000000000000000000000000028277ffffffffffffffffffffffffffffffffffffffffffffffff191611151561051357600080fd5b3387878761051f610c18565b808573ffffffffffffffffffffffffffffffffffffffff1673ffffffffffffffffffffffffffffffffffffffff168152602001848152602001838152602001828152602001945050505050604051809103906000f080151561058057600080fd5b9050600380548060010182816105969190610c28565b9160005260206000209001600083909190916101000a81548173ffffffffffffffffffffffffffffffffffffffff021916908373ffffffffffffffffffffffffffffffffffffffff160217905550507f9f63fce50e2b4f41027c423fb54a859b34000a078630f21b6dd3c19e601915888130338b8888888d8f604051808a73ffffffffffffffffffffffffffffffffffffffff1673ffffffffffffffffffffffffffffffffffffffff1681526020018973ffffffffffffffffffffffffffffffffffffffff1673ffffffffffffffffffffffffffffffffffffffff1681526020018873ffffffffffffffffffffffffffffffffffffffff1673ffffffffffffffffffffffffffffffffffffffff16815260200180602001806020018781526020018677ffffffffffffffffffffffffffffffffffffffffffffffff191677ffffffffffffffffffffffffffffffffffffffffffffffff19168152602001858152602001848152602001838103835289818151815260200191508051906020019080838360005b8381101561073757808201518184015260208101905061071c565b50505050905090810190601f1680156107645780820380516001836020036101000a031916815260200191505b50838103825288818151815260200191508051906020019080838360005b8381101561079d578082015181840152602081019050610782565b50505050905090810190601f1680156107ca5780820380516001836020036101000a031916815260200191505b509b50505050505050505050505060405180910390a15050505050505050565b6000809054906101000a900473ffffffffffffffffffffffffffffffffffffffff1673ffffffffffffffffffffffffffffffffffffffff163373ffffffffffffffffffffffffffffffffffffffff1614151561084557600080fd5b6000809054906101000a900473ffffffffffffffffffffffffffffffffffffffff1673ffffffffffffffffffffffffffffffffffffffff16ff5b6000809054906101000a900473ffffffffffffffffffffffffffffffffffffffff1681565b6001600460003373ffffffffffffffffffffffffffffffffffffffff1673ffffffffffffffffffffffffffffffffffffffff16815260200190815260200160002060006101000a81548160ff0219169083151502179055506002600081548092919060010191905055507f06a35bb1905a54453348f23087e71e8c585e13ddf2cd888c95010aee773b56463033600254604051808473ffffffffffffffffffffffffffffffffffffffff1673ffffffffffffffffffffffffffffffffffffffff1681526020018373ffffffffffffffffffffffffffffffffffffffff1673ffffffffffffffffffffffffffffffffffffffff168152602001828152602001935050505060405180910390a1565b6000809054906101000a900473ffffffffffffffffffffffffffffffffffffffff1673ffffffffffffffffffffffffffffffffffffffff163373ffffffffffffffffffffffffffffffffffffffff16141515610a0c57600080fd5b600073ffffffffffffffffffffffffffffffffffffffff168173ffffffffffffffffffffffffffffffffffffffff1614151515610a4857600080fd5b8073ffffffffffffffffffffffffffffffffffffffff166000809054906101000a900473ffffffffffffffffffffffffffffffffffffffff1673ffffffffffffffffffffffffffffffffffffffff167f8be0079c531659141344cd1fd0a4f28419497f9722a3daafe3b4186f6b6457e060405160405180910390a3806000806101000a81548173ffffffffffffffffffffffffffffffffffffffff021916908373ffffffffffffffffffffffffffffffffffffffff16021790555050565b6000809054906101000a900473ffffffffffffffffffffffffffffffffffffffff1673ffffffffffffffffffffffffffffffffffffffff163373ffffffffffffffffffffffffffffffffffffffff16141515610b6157600080fd5b8073ffffffffffffffffffffffffffffffffffffffff16ff5b60018054600181600116156101000203166002900480601f016020809104026020016040519081016040528092919081815260200182805460018160011615610100020316600290048015610c105780601f10610be557610100808354040283529160200191610c10565b820191906000526020600020905b815481529060010190602001808311610bf357829003601f168201915b505050505081565b6040516120b280610c7a83390190565b815481835581811511610c4f57818360005260206000209182019101610c4e9190610c54565b5b505050565b610c7691905b80821115610c72576000816000905550600101610c5a565b5090565b905600606060405234156200001057600080fd5b604051608080620020b283398101604052808051906020019091908051906020019091908051906020019091908051906020019091905050336000806101000a81548173ffffffffffffffffffffffffffffffffffffffff021916908373ffffffffffffffffffffffffffffffffffffffff16021790555060008473ffffffffffffffffffffffffffffffffffffffff1614151515620000af57600080fd5b836000806101000a81548173ffffffffffffffffffffffffffffffffffffffff021916908373ffffffffffffffffffffffffffffffffffffffff16021790555060008314151562000107578260028190555062000116565b66470de4df8200006002819055505b6000821415156200012e578160038190555062000137565b60146003819055505b6000811415156200014f57806008819055506200015a565b62093a806008819055505b50505050611f44806200016e6000396000f3006060604052600436106101b7576000357c0100000000000000000000000000000000000000000000000000000000900463ffffffff1680630191dc92146101bc57806305f203d9146101e557806309e69ede1461023f57806312fa6feb146102ce57806314bfd6d0146102fb5780631aa3a0081461035e5780631e3c93521461036857806324d7806c146103c25780632de40ce31461041357806331ae450b1461043c5780633ccfd60b146104a65780633d6a71e4146104bb57806352efea6e146104e45780635353a2d8146104f957806363bd1d4a146105275780636b46c8c3146105505780636d006ae8146105795780636ded82f8146105a257806383197ef0146105f3578063854bec87146106085780638da5cb5b1461061d5780639328beee14610672578063982495c71461069b5780639989a5ae146106c95780639a82a09a146106ec5780639b25cacb14610719578063a07f3a561461077c578063ad7a672f146107cd578063b5e10e9a146107f6578063babd3d9a1461081f578063c3c5a5471461084c578063d0e30db01461089d578063ea8a1af0146108c6578063f2fde38b146108db578063f5074f4114610914575b600080fd5b34156101c757600080fd5b6101cf61094d565b6040518082815260200191505060405180910390f35b34156101f057600080fd5b61023d60048080359060200190820180359060200190808060200260200160405190810160405280939291908181526020018383602002808284378201915050505050509190505061095a565b005b341561024a57600080fd5b610276600480803573ffffffffffffffffffffffffffffffffffffffff16906020019091905050610b8a565b604051808473ffffffffffffffffffffffffffffffffffffffff1673ffffffffffffffffffffffffffffffffffffffff1681526020018315151515815260200182151515158152602001935050505060405180910390f35b34156102d957600080fd5b6102e1610bee565b604051808215151515815260200191505060405180910390f35b341561030657600080fd5b61031c6004808035906020019091905050610c01565b604051808273ffffffffffffffffffffffffffffffffffffffff1673ffffffffffffffffffffffffffffffffffffffff16815260200191505060405180910390f35b610366610c40565b005b341561037357600080fd5b6103c0600480803590602001908201803590602001908080602002602001604051908101604052809392919081815260200183836020028082843782019150505050505091905050610cf6565b005b34156103cd57600080fd5b6103f9600480803573ffffffffffffffffffffffffffffffffffffffff16906020019091905050610e46565b604051808215151515815260200191505060405180910390f35b341561041e57600080fd5b610426610f48565b6040518082815260200191505060405180910390f35b341561044757600080fd5b61044f610f4e565b6040518080602001828103825283818151815260200191508051906020019060200280838360005b83811015610492578082015181840152602081019050610477565b505050509050019250505060405180910390f35b34156104b157600080fd5b6104b9610fe2565b005b34156104c657600080fd5b6104ce6111fa565b6040518082815260200191505060405180910390f35b34156104ef57600080fd5b6104f7611200565b005b341561050457600080fd5b61052560048080359060200190820180359060200191909192905050611386565b005b341561053257600080fd5b61053a611459565b6040518082815260200191505060405180910390f35b341561055b57600080fd5b610563611489565b6040518082815260200191505060405180910390f35b341561058457600080fd5b61058c61148f565b6040518082815260200191505060405180910390f35b34156105ad57600080fd5b6105d9600480803573ffffffffffffffffffffffffffffffffffffffff16906020019091905050611495565b604051808215151515815260200191505060405180910390f35b34156105fe57600080fd5b6106066114ff565b005b341561061357600080fd5b61061b611594565b005b341561062857600080fd5b610630611676565b604051808273ffffffffffffffffffffffffffffffffffffffff1673ffffffffffffffffffffffffffffffffffffffff16815260200191505060405180910390f35b341561067d57600080fd5b61068561169b565b6040518082815260200191505060405180910390f35b34156106a657600080fd5b6106c7600480803590602001908201803590602001919091929050506116a1565b005b34156106d457600080fd5b6106ea600480803590602001909190505061181d565b005b34156106f757600080fd5b6106ff61189e565b604051808215151515815260200191505060405180910390f35b341561072457600080fd5b61073a60048080359060200190919050506118b1565b604051808273ffffffffffffffffffffffffffffffffffffffff1673ffffffffffffffffffffffffffffffffffffffff16815260200191505060405180910390f35b341561078757600080fd5b6107b3600480803573ffffffffffffffffffffffffffffffffffffffff169060200190919050506118e4565b604051808215151515815260200191505060405180910390f35b34156107d857600080fd5b6107e061194e565b6040518082815260200191505060405180910390f35b341561080157600080fd5b61080961196d565b6040518082815260200191505060405180910390f35b341561082a57600080fd5b610832611973565b604051808215151515815260200191505060405180910390f35b341561085757600080fd5b610883600480803573ffffffffffffffffffffffffffffffffffffffff16906020019091905050611992565b604051808215151515815260200191505060405180910390f35b34156108a857600080fd5b6108b0611a2d565b6040518082815260200191505060405180910390f35b34156108d157600080fd5b6108d9611a33565b005b34156108e657600080fd5b610912600480803573ffffffffffffffffffffffffffffffffffffffff16906020019091905050611b1e565b005b341561091f57600080fd5b61094b600480803573ffffffffffffffffffffffffffffffffffffffff16906020019091905050611c73565b005b6000600180549050905090565b6000806000809054906101000a900473ffffffffffffffffffffffffffffffffffffffff1673ffffffffffffffffffffffffffffffffffffffff163373ffffffffffffffffffffffffffffffffffffffff161415156109b857600080fd5b600091505b8251821015610b8557600090505b600180549050811015610b785782828151811015156109e657fe5b9060200190602002015173ffffffffffffffffffffffffffffffffffffffff16600182815481101515610a1557fe5b906000526020600020900160009054906101000a900473ffffffffffffffffffffffffffffffffffffffff1673ffffffffffffffffffffffffffffffffffffffff161415610b6b57600180808054905003815481101515610a7257fe5b906000526020600020900160009054906101000a900473ffffffffffffffffffffffffffffffffffffffff16600182815481101515610aad57fe5b906000526020600020900160006101000a81548173ffffffffffffffffffffffffffffffffffffffff021916908373ffffffffffffffffffffffffffffffffffffffff1602179055506001805480919060019003610b0b9190611e87565b508282815181101515610b1a57fe5b9060200190602002015173ffffffffffffffffffffffffffffffffffffffff167f631ff1c4e1a02c54b480a34b810e03bcee61fe38efcb243930a7f820914923e260405160405180910390a2610b78565b80806001019150506109cb565b81806001019250506109bd565b505050565b600a6020528060005260406000206000915090508060000160009054906101000a900473ffffffffffffffffffffffffffffffffffffffff16908060000160149054906101000a900460ff16908060000160159054906101000a900460ff16905083565b600660009054906101000a900460ff1681565b600181815481101515610c1057fe5b90600052602060002090016000915054906101000a900473ffffffffffffffffffffffffffffffffffffffff1681565b6000600660009054906101000a900460ff16151515610c5e57600080fd5b610c66611ce7565b610c6e611973565b90507fb5c6453901cb12768521abc23abd71a4a27340b483a39144958eeaaaca959a963360045460035484604051808573ffffffffffffffffffffffffffffffffffffffff1673ffffffffffffffffffffffffffffffffffffffff1681526020018481526020018381526020018215151515815260200194505050505060405180910390a150565b60008060009054906101000a900473ffffffffffffffffffffffffffffffffffffffff1673ffffffffffffffffffffffffffffffffffffffff163373ffffffffffffffffffffffffffffffffffffffff16141515610d5357600080fd5b600090505b8151811015610e425760018054806001018281610d759190611eb3565b916000526020600020900160008484815181101515610d9057fe5b90602001906020020151909190916101000a81548173ffffffffffffffffffffffffffffffffffffffff021916908373ffffffffffffffffffffffffffffffffffffffff160217905550508181815181101515610de957fe5b9060200190602002015173ffffffffffffffffffffffffffffffffffffffff167f1c4e23de8d72c94b22992bd4d7b6786b215ba876af214ff63e6a0ca38fc97af460405160405180910390a28080600101915050610d58565b5050565b6000806000809054906101000a900473ffffffffffffffffffffffffffffffffffffffff1673ffffffffffffffffffffffffffffffffffffffff168373ffffffffffffffffffffffffffffffffffffffff161415610ea75760019150610f42565b600090505b600180549050811015610f3d578273ffffffffffffffffffffffffffffffffffffffff16600182815481101515610edf57fe5b906000526020600020900160009054906101000a900473ffffffffffffffffffffffffffffffffffffffff1673ffffffffffffffffffffffffffffffffffffffff161415610f305760019150610f42565b8080600101915050610eac565b600091505b50919050565b60045481565b610f56611edf565b6001805480602002602001604051908101604052809291908181526020018280548015610fd857602002820191906000526020600020905b8160009054906101000a900473ffffffffffffffffffffffffffffffffffffffff1673ffffffffffffffffffffffffffffffffffffffff1681526020019060010190808311610f8e575b5050505050905090565b6000600660009054906101000a900460ff161515610fff57600080fd5b600060095411151561101057600080fd5b600a60003373ffffffffffffffffffffffffffffffffffffffff1673ffffffffffffffffffffffffffffffffffffffff16815260200190815260200160002090503373ffffffffffffffffffffffffffffffffffffffff168160000160009054906101000a900473ffffffffffffffffffffffffffffffffffffffff1673ffffffffffffffffffffffffffffffffffffffff161415156110af57600080fd5b600660019054906101000a900460ff16806110d857508060000160149054906101000a900460ff165b15156110e357600080fd5b600015158160000160159054906101000a900460ff16151514151561110757600080fd5b60018160000160156101000a81548160ff0219169083151502179055508060000160009054906101000a900473ffffffffffffffffffffffffffffffffffffffff1673ffffffffffffffffffffffffffffffffffffffff166108fc6009549081150290604051600060405180830381858888f19350505050151561118a57600080fd5b7f5dba113b49cfa7c90315e8e604e6b506f7abcb909b01dcb19ec39005086e68fc33600954604051808373ffffffffffffffffffffffffffffffffffffffff1673ffffffffffffffffffffffffffffffffffffffff1681526020018281526020019250505060405180910390a150565b60075481565b60008060009054906101000a900473ffffffffffffffffffffffffffffffffffffffff1673ffffffffffffffffffffffffffffffffffffffff163373ffffffffffffffffffffffffffffffffffffffff1614151561125d57600080fd5b600660009054906101000a900460ff16151561127857600080fd5b600854600754014211151561128c57600080fd5b61129461194e565b90506000809054906101000a900473ffffffffffffffffffffffffffffffffffffffff1673ffffffffffffffffffffffffffffffffffffffff166108fc829081150290604051600060405180830381858888f1935050505015156112f757600080fd5b7f61355a34c3bc2e502a24eba7ad2fb0fd0d05c4f71de8cb041fbe39cd3649665e6000809054906101000a900473ffffffffffffffffffffffffffffffffffffffff1682604051808373ffffffffffffffffffffffffffffffffffffffff1673ffffffffffffffffffffffffffffffffffffffff1681526020018281526020019250505060405180910390a150565b6000809054906101000a900473ffffffffffffffffffffffffffffffffffffffff1673ffffffffffffffffffffffffffffffffffffffff163373ffffffffffffffffffffffffffffffffffffffff161415156113e157600080fd5b60006004541415156113f257600080fd5b60008282905011151561140457600080fd5b7f50cccf40d174cba784cc6c10d8511123e07dbfcbbfe39e7e0ace01675a688bc28282604051808060200182810382528484828181526020019250808284378201915050935050505060405180910390a15050565b600080600554141561146e5760009050611486565b60055461147961194e565b81151561148257fe5b0490505b90565b60095481565b60035481565b60006114a082611992565b80156114f85750600a60008373ffffffffffffffffffffffffffffffffffffffff1673ffffffffffffffffffffffffffffffffffffffff16815260200190815260200160002060000160159054906101000a900460ff165b9050919050565b6000809054906101000a900473ffffffffffffffffffffffffffffffffffffffff1673ffffffffffffffffffffffffffffffffffffffff163373ffffffffffffffffffffffffffffffffffffffff1614151561155a57600080fd5b6000809054906101000a900473ffffffffffffffffffffffffffffffffffffffff1673ffffffffffffffffffffffffffffffffffffffff16ff5b6000809054906101000a900473ffffffffffffffffffffffffffffffffffffffff1673ffffffffffffffffffffffffffffffffffffffff163373ffffffffffffffffffffffffffffffffffffffff161415156115ef57600080fd5b600660009054906101000a900460ff1615151561160b57600080fd5b611613611459565b6009819055506001600660006101000a81548160ff021916908315150217905550426007819055507fb7152de35affc741a6b2355d37e9caf51fe847cacfccd414be5e15996ff7e6c66009546040518082815260200191505060405180910390a1565b6000809054906101000a900473ffffffffffffffffffffffffffffffffffffffff1681565b60085481565b6000806116ad33610e46565b15156116b857600080fd5b600660009054906101000a900460ff161515156116d457600080fd5b600091505b838390508210156118175783838381811015156116f257fe5b9050602002013573ffffffffffffffffffffffffffffffffffffffff16905061171a81611992565b151561172557600080fd5b61172e816118e4565b15151561173a57600080fd5b7f1c5e7a37dd4095194684d8f835d2c81b686d64d685032055a7cd02edc7c49ed881604051808273ffffffffffffffffffffffffffffffffffffffff1673ffffffffffffffffffffffffffffffffffffffff16815260200191505060405180910390a16001600a60008373ffffffffffffffffffffffffffffffffffffffff1673ffffffffffffffffffffffffffffffffffffffff16815260200190815260200160002060000160146101000a81548160ff02191690831515021790555060056000815480929190600101919050555081806001019250506116d9565b50505050565b6000809054906101000a900473ffffffffffffffffffffffffffffffffffffffff1673ffffffffffffffffffffffffffffffffffffffff163373ffffffffffffffffffffffffffffffffffffffff1614151561187857600080fd5b600660009054906101000a900460ff1615151561189457600080fd5b8060038190555050565b600660019054906101000a900460ff1681565b600b6020528060005260406000206000915054906101000a900473ffffffffffffffffffffffffffffffffffffffff1681565b60006118ef82611992565b80156119475750600a60008373ffffffffffffffffffffffffffffffffffffffff1673ffffffffffffffffffffffffffffffffffffffff16815260200190815260200160002060000160149054906101000a900460ff165b9050919050565b60003073ffffffffffffffffffffffffffffffffffffffff1631905090565b60055481565b6000600354600454101561198a576000905061198f565b600190505b90565b60008073ffffffffffffffffffffffffffffffffffffffff16600a60008473ffffffffffffffffffffffffffffffffffffffff1673ffffffffffffffffffffffffffffffffffffffff16815260200190815260200160002060000160009054906101000a900473ffffffffffffffffffffffffffffffffffffffff1673ffffffffffffffffffffffffffffffffffffffff1614159050919050565b60025481565b6000809054906101000a900473ffffffffffffffffffffffffffffffffffffffff1673ffffffffffffffffffffffffffffffffffffffff163373ffffffffffffffffffffffffffffffffffffffff16141515611a8e57600080fd5b600660009054906101000a900460ff16151515611aaa57600080fd5b6002546009819055506001600660016101000a81548160ff0219169083151502179055506001600660006101000a81548160ff021916908315150217905550426007819055507faac5ae2dfd439bb6c2f88b2d8af5b285cfee7584ad0d13ae7c00c1226c7c4c7b60405160405180910390a1565b6000809054906101000a900473ffffffffffffffffffffffffffffffffffffffff1673ffffffffffffffffffffffffffffffffffffffff163373ffffffffffffffffffffffffffffffffffffffff16141515611b7957600080fd5b600073ffffffffffffffffffffffffffffffffffffffff168173ffffffffffffffffffffffffffffffffffffffff1614151515611bb557600080fd5b8073ffffffffffffffffffffffffffffffffffffffff166000809054906101000a900473ffffffffffffffffffffffffffffffffffffffff1673ffffffffffffffffffffffffffffffffffffffff167f8be0079c531659141344cd1fd0a4f28419497f9722a3daafe3b4186f6b6457e060405160405180910390a3806000806101000a81548173ffffffffffffffffffffffffffffffffffffffff021916908373ffffffffffffffffffffffffffffffffffffffff16021790555050565b6000809054906101000a900473ffffffffffffffffffffffffffffffffffffffff1673ffffffffffffffffffffffffffffffffffffffff163373ffffffffffffffffffffffffffffffffffffffff16141515611cce57600080fd5b8073ffffffffffffffffffffffffffffffffffffffff16ff5b60025434141515611cf757600080fd5b600354600454101515611d0957600080fd5b611d1233611992565b151515611d1e57600080fd5b60046000815480929190600101919050555033600b6000600454815260200190815260200160002060006101000a81548173ffffffffffffffffffffffffffffffffffffffff021916908373ffffffffffffffffffffffffffffffffffffffff1602179055506060604051908101604052803373ffffffffffffffffffffffffffffffffffffffff16815260200160001515815260200160001515815250600a60003373ffffffffffffffffffffffffffffffffffffffff1673ffffffffffffffffffffffffffffffffffffffff16815260200190815260200160002060008201518160000160006101000a81548173ffffffffffffffffffffffffffffffffffffffff021916908373ffffffffffffffffffffffffffffffffffffffff16021790555060208201518160000160146101000a81548160ff02191690831515021790555060408201518160000160156101000a81548160ff021916908315150217905550905050565b815481835581811511611eae57818360005260206000209182019101611ead9190611ef3565b5b505050565b815481835581811511611eda57818360005260206000209182019101611ed99190611ef3565b5b505050565b602060405190810160405280600081525090565b611f1591905b80821115611f11576000816000905550600101611ef9565b5090565b905600a165627a7a723058207bdb9a6eafaff3512fe5bd116a96cdcf0d5dcfd946cb322a970bfc5762b7c7490029a165627a7a723058208c0f732cae6bf2a8231bceca8f88a2f91edb4b773e1ace35e37af6112849b2d00029a165627a7a72305820234f4cf99b26f05961dc95d0be25f5fbba6b61980c2457527d289478f1c932290029",
  "source": "pragma solidity 0.4.21;\n\nimport \"./MeetupGroup.sol\";\nimport \"./zeppelin/ownership/Ownable.sol\";\n\ncontract GroupFactory is Ownable {\n\n    address[] public groups;\n\n    event CreateGroup(\n        address indexed id,\n        address indexed userId,\n        string name, \n        string description, \n        string country, \n        string region, \n        string category\n    );\n\n    /* Public functions */\n    /**\n     *@dev Constructor \n     */\n    /**\n     * @dev Create Group.\n     * @param _name The name of the meetup group\n     * @param _country Country of meetup group\n     * @param _region Region of meetup group\n     * @param _category Category the meetup group belongs to\n     * @param _description Desciption of the meetup group\n     * @param _logo IPFS link\n     */\n    function createGroup(\n        string _name,\n        string _country,\n        string _region,\n        string _category,\n        string _description,\n        bytes _logo\n    ) public {\n        require(bytes(_name).length > 0);\n        require(bytes(_country).length > 0);\n        require(bytes(_region).length > 0);\n        require(bytes(_category).length > 0);\n        address group = new MeetupGroup(\n        msg.sender,\n        // _name,\n        // _country,\n        // _region,\n        // _category,\n        // _description,\n        _logo\n        );\n        groups.push(group);\n\n        emit CreateGroup(group, msg.sender, _name, _description, _country, _region, _category);\n    }\n}",
  "sourcePath": "/Users/jackleslie/Desktop/Hackathons/meet-up/contracts/GroupFactory.sol",
  "compiler": {
    "name": "solc",
    "version": "0.4.21+commit.dfe3193c.Emscripten.clang"
  },
  "schemaVersion": "2.0.0",
  "updatedAt": "2018-09-09T09:38:31.413Z"
}