{
  "contractName": "MeetupGroup",
  "abi": [
    {
      "constant": true,
      "inputs": [
        {
          "name": "",
          "type": "address"
        }
      ],
      "name": "members",
      "outputs": [
        {
          "name": "",
          "type": "bool"
        }
      ],
      "payable": false,
      "stateMutability": "view",
      "type": "function"
    },
    {
      "constant": true,
      "inputs": [
        {
          "name": "",
          "type": "uint256"
        }
      ],
      "name": "events",
      "outputs": [
        {
          "name": "",
          "type": "address"
        }
      ],
      "payable": false,
      "stateMutability": "view",
      "type": "function"
    },
    {
      "constant": true,
      "inputs": [],
      "name": "memberCount",
      "outputs": [
        {
          "name": "",
          "type": "uint256"
        }
      ],
      "payable": false,
      "stateMutability": "view",
      "type": "function"
    },
    {
      "constant": false,
      "inputs": [],
      "name": "destroy",
      "outputs": [],
      "payable": false,
      "stateMutability": "nonpayable",
      "type": "function"
    },
    {
      "constant": true,
      "inputs": [],
      "name": "owner",
      "outputs": [
        {
          "name": "",
          "type": "address"
        }
      ],
      "payable": false,
      "stateMutability": "view",
      "type": "function"
    },
    {
      "constant": false,
      "inputs": [
        {
          "name": "newOwner",
          "type": "address"
        }
      ],
      "name": "transferOwnership",
      "outputs": [],
      "payable": false,
      "stateMutability": "nonpayable",
      "type": "function"
    },
    {
      "constant": false,
      "inputs": [
        {
          "name": "_recipient",
          "type": "address"
        }
      ],
      "name": "destroyAndSend",
      "outputs": [],
      "payable": false,
      "stateMutability": "nonpayable",
      "type": "function"
    },
    {
      "constant": true,
      "inputs": [],
      "name": "logo",
      "outputs": [
        {
          "name": "",
          "type": "bytes"
        }
      ],
      "payable": false,
      "stateMutability": "view",
      "type": "function"
    },
    {
      "inputs": [
        {
          "name": "_owner",
          "type": "address"
        },
        {
          "name": "_logo",
          "type": "bytes"
        }
      ],
      "payable": false,
      "stateMutability": "nonpayable",
      "type": "constructor"
    },
    {
      "anonymous": false,
      "inputs": [
        {
          "indexed": false,
          "name": "id",
          "type": "address"
        },
        {
          "indexed": false,
          "name": "groupId",
          "type": "address"
        },
        {
          "indexed": false,
          "name": "userId",
          "type": "address"
        },
        {
          "indexed": false,
          "name": "name",
          "type": "string"
        },
        {
          "indexed": false,
          "name": "description",
          "type": "string"
        },
        {
          "indexed": false,
          "name": "date",
          "type": "uint256"
        },
        {
          "indexed": false,
          "name": "geohash",
          "type": "bytes8"
        },
        {
          "indexed": false,
          "name": "limitOfParticipants",
          "type": "uint256"
        },
        {
          "indexed": false,
          "name": "deposit",
          "type": "uint256"
        }
      ],
      "name": "CreateEvent",
      "type": "event"
    },
    {
      "anonymous": false,
      "inputs": [
        {
          "indexed": false,
          "name": "groupId",
          "type": "address"
        },
        {
          "indexed": false,
          "name": "userId",
          "type": "address"
        },
        {
          "indexed": false,
          "name": "memberCount",
          "type": "uint256"
        }
      ],
      "name": "JoinGroup",
      "type": "event"
    },
    {
      "anonymous": false,
      "inputs": [
        {
          "indexed": false,
          "name": "id",
          "type": "address"
        }
      ],
      "name": "DestroyEvent",
      "type": "event"
    },
    {
      "anonymous": false,
      "inputs": [
        {
          "indexed": true,
          "name": "previousOwner",
          "type": "address"
        },
        {
          "indexed": true,
          "name": "newOwner",
          "type": "address"
        }
      ],
      "name": "OwnershipTransferred",
      "type": "event"
    },
    {
      "constant": false,
      "inputs": [
        {
          "name": "_name",
          "type": "string"
        },
        {
          "name": "_deposit",
          "type": "uint256"
        },
        {
          "name": "_limitOfParticipants",
          "type": "uint256"
        },
        {
          "name": "_coolingPeriod",
          "type": "uint256"
        },
        {
          "name": "_description",
          "type": "string"
        },
        {
          "name": "_date",
          "type": "uint256"
        },
        {
          "name": "_geohash",
          "type": "bytes8"
        }
      ],
      "name": "createEvent",
      "outputs": [],
      "payable": false,
      "stateMutability": "nonpayable",
      "type": "function"
    },
    {
      "constant": false,
      "inputs": [],
      "name": "joinGroup",
      "outputs": [],
      "payable": false,
      "stateMutability": "nonpayable",
      "type": "function"
    }
  ],
  "bytecode": "0x60806040523480156200001157600080fd5b50604051620033bf380380620033bf8339810180604052810190808051906020019092919080518201929190505050336000806101000a81548173ffffffffffffffffffffffffffffffffffffffff021916908373ffffffffffffffffffffffffffffffffffffffff16021790555060008273ffffffffffffffffffffffffffffffffffffffff161415151562000136576040517f08c379a00000000000000000000000000000000000000000000000000000000081526004018080602001828103825260218152602001807f4f776e6572206e6565647320746f20626520612076616c69642061646472657381526020017f730000000000000000000000000000000000000000000000000000000000000081525060400191505060405180910390fd5b816000806101000a81548173ffffffffffffffffffffffffffffffffffffffff021916908373ffffffffffffffffffffffffffffffffffffffff16021790555060008151141515620001a15780600190805190602001906200019a92919062000262565b50620001f0565b6040805190810160405280600381526020017f307830000000000000000000000000000000000000000000000000000000000081525060019080519060200190620001ee929190620002e9565b505b6001600460003373ffffffffffffffffffffffffffffffffffffffff1673ffffffffffffffffffffffffffffffffffffffff16815260200190815260200160002060006101000a81548160ff021916908315150217905550600260008154809291906001019190505550505062000398565b828054600181600116156101000203166002900490600052602060002090601f016020900481019282601f10620002a557805160ff1916838001178555620002d6565b82800160010185558215620002d6579182015b82811115620002d5578251825591602001919060010190620002b8565b5b509050620002e5919062000370565b5090565b828054600181600116156101000203166002900490600052602060002090601f016020900481019282601f106200032c57805160ff19168380011785556200035d565b828001600101855582156200035d579182015b828111156200035c5782518255916020019190600101906200033f565b5b5090506200036c919062000370565b5090565b6200039591905b808211156200039157600081600090555060010162000377565b5090565b90565b61301780620003a86000396000f3006080604052600436106100a4576000357c0100000000000000000000000000000000000000000000000000000000900463ffffffff16806308ae4b0c146100a95780630b7914301461010457806311aee3801461017157806325f290951461019c57806383197ef0146102985780638da5cb5b146102af5780639ac79e0a14610306578063f2fde38b1461031d578063f5074f4114610360578063fb7f21eb146103a3575b600080fd5b3480156100b557600080fd5b506100ea600480360381019080803573ffffffffffffffffffffffffffffffffffffffff169060200190929190505050610433565b604051808215151515815260200191505060405180910390f35b34801561011057600080fd5b5061012f60048036038101908080359060200190929190505050610453565b604051808273ffffffffffffffffffffffffffffffffffffffff1673ffffffffffffffffffffffffffffffffffffffff16815260200191505060405180910390f35b34801561017d57600080fd5b50610186610491565b6040518082815260200191505060405180910390f35b3480156101a857600080fd5b50610296600480360381019080803590602001908201803590602001908080601f0160208091040260200160405190810160405280939291908181526020018383808284378201915050505050509192919290803590602001909291908035906020019092919080359060200190929190803590602001908201803590602001908080601f016020809104026020016040519081016040528093929190818152602001838380828437820191505050505050919291929080359060200190929190803577ffffffffffffffffffffffffffffffffffffffffffffffff19169060200190929190505050610497565b005b3480156102a457600080fd5b506102ad610974565b005b3480156102bb57600080fd5b506102c4610a09565b604051808273ffffffffffffffffffffffffffffffffffffffff1673ffffffffffffffffffffffffffffffffffffffff16815260200191505060405180910390f35b34801561031257600080fd5b5061031b610a2e565b005b34801561032957600080fd5b5061035e600480360381019080803573ffffffffffffffffffffffffffffffffffffffff169060200190929190505050610b3b565b005b34801561036c57600080fd5b506103a1600480360381019080803573ffffffffffffffffffffffffffffffffffffffff169060200190929190505050610c90565b005b3480156103af57600080fd5b506103b8610d04565b6040518080602001828103825283818151815260200191508051906020019080838360005b838110156103f85780820151818401526020810190506103dd565b50505050905090810190601f1680156104255780820380516001836020036101000a031916815260200191505b509250505060405180910390f35b60046020528060005260406000206000915054906101000a900460ff1681565b60038181548110151561046257fe5b906000526020600020016000915054906101000a900473ffffffffffffffffffffffffffffffffffffffff1681565b60025481565b60008060009054906101000a900473ffffffffffffffffffffffffffffffffffffffff1673ffffffffffffffffffffffffffffffffffffffff163373ffffffffffffffffffffffffffffffffffffffff161415156104f457600080fd5b6000885111151561056d576040517f08c379a00000000000000000000000000000000000000000000000000000000081526004018080602001828103825260118152602001807f4e616d652068617320746f20657869737400000000000000000000000000000081525060200191505060405180910390fd5b6000831115156105e5576040517f08c379a00000000000000000000000000000000000000000000000000000000081526004018080602001828103825260118152602001807f446174652068617320746f20657869737400000000000000000000000000000081525060200191505060405180910390fd5b60007801000000000000000000000000000000000000000000000000028277ffffffffffffffffffffffffffffffffffffffffffffffff1916111515610693576040517f08c379a00000000000000000000000000000000000000000000000000000000081526004018080602001828103825260148152602001807f47656f686173682068617320746f20657869737400000000000000000000000081525060200191505060405180910390fd5b3387878761069f610da2565b808573ffffffffffffffffffffffffffffffffffffffff1673ffffffffffffffffffffffffffffffffffffffff168152602001848152602001838152602001828152602001945050505050604051809103906000f080158015610706573d6000803e3d6000fd5b50905060038190806001815401808255809150509060018203906000526020600020016000909192909190916101000a81548173ffffffffffffffffffffffffffffffffffffffff021916908373ffffffffffffffffffffffffffffffffffffffff160217905550507f9f63fce50e2b4f41027c423fb54a859b34000a078630f21b6dd3c19e601915888130338b8888888d8f604051808a73ffffffffffffffffffffffffffffffffffffffff1673ffffffffffffffffffffffffffffffffffffffff1681526020018973ffffffffffffffffffffffffffffffffffffffff1673ffffffffffffffffffffffffffffffffffffffff1681526020018873ffffffffffffffffffffffffffffffffffffffff1673ffffffffffffffffffffffffffffffffffffffff16815260200180602001806020018781526020018677ffffffffffffffffffffffffffffffffffffffffffffffff191677ffffffffffffffffffffffffffffffffffffffffffffffff19168152602001858152602001848152602001838103835289818151815260200191508051906020019080838360005b838110156108c15780820151818401526020810190506108a6565b50505050905090810190601f1680156108ee5780820380516001836020036101000a031916815260200191505b50838103825288818151815260200191508051906020019080838360005b8381101561092757808201518184015260208101905061090c565b50505050905090810190601f1680156109545780820380516001836020036101000a031916815260200191505b509b50505050505050505050505060405180910390a15050505050505050565b6000809054906101000a900473ffffffffffffffffffffffffffffffffffffffff1673ffffffffffffffffffffffffffffffffffffffff163373ffffffffffffffffffffffffffffffffffffffff161415156109cf57600080fd5b6000809054906101000a900473ffffffffffffffffffffffffffffffffffffffff1673ffffffffffffffffffffffffffffffffffffffff16ff5b6000809054906101000a900473ffffffffffffffffffffffffffffffffffffffff1681565b6001600460003373ffffffffffffffffffffffffffffffffffffffff1673ffffffffffffffffffffffffffffffffffffffff16815260200190815260200160002060006101000a81548160ff0219169083151502179055506002600081548092919060010191905055507f06a35bb1905a54453348f23087e71e8c585e13ddf2cd888c95010aee773b56463033600254604051808473ffffffffffffffffffffffffffffffffffffffff1673ffffffffffffffffffffffffffffffffffffffff1681526020018373ffffffffffffffffffffffffffffffffffffffff1673ffffffffffffffffffffffffffffffffffffffff168152602001828152602001935050505060405180910390a1565b6000809054906101000a900473ffffffffffffffffffffffffffffffffffffffff1673ffffffffffffffffffffffffffffffffffffffff163373ffffffffffffffffffffffffffffffffffffffff16141515610b9657600080fd5b600073ffffffffffffffffffffffffffffffffffffffff168173ffffffffffffffffffffffffffffffffffffffff1614151515610bd257600080fd5b8073ffffffffffffffffffffffffffffffffffffffff166000809054906101000a900473ffffffffffffffffffffffffffffffffffffffff1673ffffffffffffffffffffffffffffffffffffffff167f8be0079c531659141344cd1fd0a4f28419497f9722a3daafe3b4186f6b6457e060405160405180910390a3806000806101000a81548173ffffffffffffffffffffffffffffffffffffffff021916908373ffffffffffffffffffffffffffffffffffffffff16021790555050565b6000809054906101000a900473ffffffffffffffffffffffffffffffffffffffff1673ffffffffffffffffffffffffffffffffffffffff163373ffffffffffffffffffffffffffffffffffffffff16141515610ceb57600080fd5b8073ffffffffffffffffffffffffffffffffffffffff16ff5b60018054600181600116156101000203166002900480601f016020809104026020016040519081016040528092919081815260200182805460018160011615610100020316600290048015610d9a5780601f10610d6f57610100808354040283529160200191610d9a565b820191906000526020600020905b815481529060010190602001808311610d7d57829003601f168201915b505050505081565b60405161223980610db383390190560060806040523480156200001157600080fd5b506040516080806200223983398101806040528101908080519060200190929190805190602001909291908051906020019092919080519060200190929190505050336000806101000a81548173ffffffffffffffffffffffffffffffffffffffff021916908373ffffffffffffffffffffffffffffffffffffffff16021790555060008473ffffffffffffffffffffffffffffffffffffffff161415151562000149576040517f08c379a00000000000000000000000000000000000000000000000000000000081526004018080602001828103825260218152602001807f4f776e6572206e6565647320746f20626520612076616c69642061646472657381526020017f730000000000000000000000000000000000000000000000000000000000000081525060400191505060405180910390fd5b836000806101000a81548173ffffffffffffffffffffffffffffffffffffffff021916908373ffffffffffffffffffffffffffffffffffffffff160217905550600083141515620001a15782600281905550620001b0565b66470de4df8200006002819055505b600082141515620001c85781600381905550620001d1565b60146003819055505b600081141515620001e95780600881905550620001f4565b62093a806008819055505b5050505061203180620002086000396000f3006080604052600436106101b7576000357c0100000000000000000000000000000000000000000000000000000000900463ffffffff1680630191dc92146101bc57806305f203d9146101e757806309e69ede1461024d57806312fa6feb146102e657806314bfd6d0146103155780631aa3a008146103825780631e3c93521461038c57806324d7806c146103f25780632de40ce31461044d57806331ae450b146104785780633ccfd60b146104e45780633d6a71e4146104fb57806352efea6e146105265780635353a2d81461053d57806363bd1d4a146105785780636b46c8c3146105a35780636d006ae8146105ce5780636ded82f8146105f957806383197ef014610654578063854bec871461066b5780638da5cb5b146106825780639328beee146106d9578063982495c7146107045780639989a5ae1461073f5780639a82a09a1461076c5780639b25cacb1461079b578063a07f3a5614610808578063ad7a672f14610863578063b5e10e9a1461088e578063babd3d9a146108b9578063c3c5a547146108e8578063d0e30db014610943578063ea8a1af01461096e578063f2fde38b14610985578063f5074f41146109c8575b600080fd5b3480156101c857600080fd5b506101d1610a0b565b6040518082815260200191505060405180910390f35b3480156101f357600080fd5b5061024b60048036038101908080359060200190820180359060200190808060200260200160405190810160405280939291908181526020018383602002808284378201915050505050509192919290505050610a18565b005b34801561025957600080fd5b5061028e600480360381019080803573ffffffffffffffffffffffffffffffffffffffff169060200190929190505050610c45565b604051808473ffffffffffffffffffffffffffffffffffffffff1673ffffffffffffffffffffffffffffffffffffffff1681526020018315151515815260200182151515158152602001935050505060405180910390f35b3480156102f257600080fd5b506102fb610ca9565b604051808215151515815260200191505060405180910390f35b34801561032157600080fd5b5061034060048036038101908080359060200190929190505050610cbc565b604051808273ffffffffffffffffffffffffffffffffffffffff1673ffffffffffffffffffffffffffffffffffffffff16815260200191505060405180910390f35b61038a610cfa565b005b34801561039857600080fd5b506103f060048036038101908080359060200190820180359060200190808060200260200160405190810160405280939291908181526020018383602002808284378201915050505050509192919290505050610db0565b005b3480156103fe57600080fd5b50610433600480360381019080803573ffffffffffffffffffffffffffffffffffffffff169060200190929190505050610f03565b604051808215151515815260200191505060405180910390f35b34801561045957600080fd5b50610462611004565b6040518082815260200191505060405180910390f35b34801561048457600080fd5b5061048d61100a565b6040518080602001828103825283818151815260200191508051906020019060200280838360005b838110156104d05780820151818401526020810190506104b5565b505050509050019250505060405180910390f35b3480156104f057600080fd5b506104f9611098565b005b34801561050757600080fd5b506105106112b7565b6040518082815260200191505060405180910390f35b34801561053257600080fd5b5061053b6112bd565b005b34801561054957600080fd5b5061057660048036038101908080359060200190820180359060200191909192939192939050505061144a565b005b34801561058457600080fd5b5061058d611586565b6040518082815260200191505060405180910390f35b3480156105af57600080fd5b506105b86115b6565b6040518082815260200191505060405180910390f35b3480156105da57600080fd5b506105e36115bc565b6040518082815260200191505060405180910390f35b34801561060557600080fd5b5061063a600480360381019080803573ffffffffffffffffffffffffffffffffffffffff1690602001909291905050506115c2565b604051808215151515815260200191505060405180910390f35b34801561066057600080fd5b5061066961162c565b005b34801561067757600080fd5b506106806116c1565b005b34801561068e57600080fd5b506106976117a3565b604051808273ffffffffffffffffffffffffffffffffffffffff1673ffffffffffffffffffffffffffffffffffffffff16815260200191505060405180910390f35b3480156106e557600080fd5b506106ee6117c8565b6040518082815260200191505060405180910390f35b34801561071057600080fd5b5061073d6004803603810190808035906020019082018035906020019190919293919293905050506117ce565b005b34801561074b57600080fd5b5061076a6004803603810190808035906020019092919050505061194a565b005b34801561077857600080fd5b506107816119cb565b604051808215151515815260200191505060405180910390f35b3480156107a757600080fd5b506107c6600480360381019080803590602001909291905050506119de565b604051808273ffffffffffffffffffffffffffffffffffffffff1673ffffffffffffffffffffffffffffffffffffffff16815260200191505060405180910390f35b34801561081457600080fd5b50610849600480360381019080803573ffffffffffffffffffffffffffffffffffffffff169060200190929190505050611a11565b604051808215151515815260200191505060405180910390f35b34801561086f57600080fd5b50610878611a7b565b6040518082815260200191505060405180910390f35b34801561089a57600080fd5b506108a3611a9a565b6040518082815260200191505060405180910390f35b3480156108c557600080fd5b506108ce611aa0565b604051808215151515815260200191505060405180910390f35b3480156108f457600080fd5b50610929600480360381019080803573ffffffffffffffffffffffffffffffffffffffff169060200190929190505050611abf565b604051808215151515815260200191505060405180910390f35b34801561094f57600080fd5b50610958611b5a565b6040518082815260200191505060405180910390f35b34801561097a57600080fd5b50610983611b60565b005b34801561099157600080fd5b506109c6600480360381019080803573ffffffffffffffffffffffffffffffffffffffff169060200190929190505050611c4b565b005b3480156109d457600080fd5b50610a09600480360381019080803573ffffffffffffffffffffffffffffffffffffffff169060200190929190505050611da0565b005b6000600180549050905090565b6000806000809054906101000a900473ffffffffffffffffffffffffffffffffffffffff1673ffffffffffffffffffffffffffffffffffffffff163373ffffffffffffffffffffffffffffffffffffffff16141515610a7657600080fd5b600091505b8251821015610c4057600090505b600180549050811015610c33578282815181101515610aa457fe5b9060200190602002015173ffffffffffffffffffffffffffffffffffffffff16600182815481101515610ad357fe5b9060005260206000200160009054906101000a900473ffffffffffffffffffffffffffffffffffffffff1673ffffffffffffffffffffffffffffffffffffffff161415610c2657600180808054905003815481101515610b2f57fe5b9060005260206000200160009054906101000a900473ffffffffffffffffffffffffffffffffffffffff16600182815481101515610b6957fe5b9060005260206000200160006101000a81548173ffffffffffffffffffffffffffffffffffffffff021916908373ffffffffffffffffffffffffffffffffffffffff1602179055506001805480919060019003610bc69190611fb4565b508282815181101515610bd557fe5b9060200190602002015173ffffffffffffffffffffffffffffffffffffffff167f631ff1c4e1a02c54b480a34b810e03bcee61fe38efcb243930a7f820914923e260405160405180910390a2610c33565b8080600101915050610a89565b8180600101925050610a7b565b505050565b600a6020528060005260406000206000915090508060000160009054906101000a900473ffffffffffffffffffffffffffffffffffffffff16908060000160149054906101000a900460ff16908060000160159054906101000a900460ff16905083565b600660009054906101000a900460ff1681565b600181815481101515610ccb57fe5b906000526020600020016000915054906101000a900473ffffffffffffffffffffffffffffffffffffffff1681565b6000600660009054906101000a900460ff16151515610d1857600080fd5b610d20611e14565b610d28611aa0565b90507fb5c6453901cb12768521abc23abd71a4a27340b483a39144958eeaaaca959a963360045460035484604051808573ffffffffffffffffffffffffffffffffffffffff1673ffffffffffffffffffffffffffffffffffffffff1681526020018481526020018381526020018215151515815260200194505050505060405180910390a150565b60008060009054906101000a900473ffffffffffffffffffffffffffffffffffffffff1673ffffffffffffffffffffffffffffffffffffffff163373ffffffffffffffffffffffffffffffffffffffff16141515610e0d57600080fd5b600090505b8151811015610eff5760018282815181101515610e2b57fe5b9060200190602002015190806001815401808255809150509060018203906000526020600020016000909192909190916101000a81548173ffffffffffffffffffffffffffffffffffffffff021916908373ffffffffffffffffffffffffffffffffffffffff160217905550508181815181101515610ea657fe5b9060200190602002015173ffffffffffffffffffffffffffffffffffffffff167f1c4e23de8d72c94b22992bd4d7b6786b215ba876af214ff63e6a0ca38fc97af460405160405180910390a28080600101915050610e12565b5050565b6000806000809054906101000a900473ffffffffffffffffffffffffffffffffffffffff1673ffffffffffffffffffffffffffffffffffffffff168373ffffffffffffffffffffffffffffffffffffffff161415610f645760019150610ffe565b600090505b600180549050811015610ff9578273ffffffffffffffffffffffffffffffffffffffff16600182815481101515610f9c57fe5b9060005260206000200160009054906101000a900473ffffffffffffffffffffffffffffffffffffffff1673ffffffffffffffffffffffffffffffffffffffff161415610fec5760019150610ffe565b8080600101915050610f69565b600091505b50919050565b60045481565b6060600180548060200260200160405190810160405280929190818152602001828054801561108e57602002820191906000526020600020905b8160009054906101000a900473ffffffffffffffffffffffffffffffffffffffff1673ffffffffffffffffffffffffffffffffffffffff1681526020019060010190808311611044575b5050505050905090565b6000600660009054906101000a900460ff1615156110b557600080fd5b60006009541115156110c657600080fd5b600a60003373ffffffffffffffffffffffffffffffffffffffff1673ffffffffffffffffffffffffffffffffffffffff16815260200190815260200160002090503373ffffffffffffffffffffffffffffffffffffffff168160000160009054906101000a900473ffffffffffffffffffffffffffffffffffffffff1673ffffffffffffffffffffffffffffffffffffffff1614151561116557600080fd5b600660019054906101000a900460ff168061118e57508060000160149054906101000a900460ff165b151561119957600080fd5b600015158160000160159054906101000a900460ff1615151415156111bd57600080fd5b60018160000160156101000a81548160ff0219169083151502179055508060000160009054906101000a900473ffffffffffffffffffffffffffffffffffffffff1673ffffffffffffffffffffffffffffffffffffffff166108fc6009549081150290604051600060405180830381858888f19350505050158015611246573d6000803e3d6000fd5b507f5dba113b49cfa7c90315e8e604e6b506f7abcb909b01dcb19ec39005086e68fc33600954604051808373ffffffffffffffffffffffffffffffffffffffff1673ffffffffffffffffffffffffffffffffffffffff1681526020018281526020019250505060405180910390a150565b60075481565b60008060009054906101000a900473ffffffffffffffffffffffffffffffffffffffff1673ffffffffffffffffffffffffffffffffffffffff163373ffffffffffffffffffffffffffffffffffffffff1614151561131a57600080fd5b600660009054906101000a900460ff16151561133557600080fd5b600854600754014211151561134957600080fd5b611351611a7b565b90506000809054906101000a900473ffffffffffffffffffffffffffffffffffffffff1673ffffffffffffffffffffffffffffffffffffffff166108fc829081150290604051600060405180830381858888f193505050501580156113ba573d6000803e3d6000fd5b507f61355a34c3bc2e502a24eba7ad2fb0fd0d05c4f71de8cb041fbe39cd3649665e6000809054906101000a900473ffffffffffffffffffffffffffffffffffffffff1682604051808373ffffffffffffffffffffffffffffffffffffffff1673ffffffffffffffffffffffffffffffffffffffff1681526020018281526020019250505060405180910390a150565b6000809054906101000a900473ffffffffffffffffffffffffffffffffffffffff1673ffffffffffffffffffffffffffffffffffffffff163373ffffffffffffffffffffffffffffffffffffffff161415156114a557600080fd5b60006004541415156114b657600080fd5b600082829050111515611531576040517f08c379a00000000000000000000000000000000000000000000000000000000081526004018080602001828103825260178152602001807f4e6577206e616d65206e6565647320746f20657869737400000000000000000081525060200191505060405180910390fd5b7f50cccf40d174cba784cc6c10d8511123e07dbfcbbfe39e7e0ace01675a688bc28282604051808060200182810382528484828181526020019250808284378201915050935050505060405180910390a15050565b600080600554141561159b57600090506115b3565b6005546115a6611a7b565b8115156115af57fe5b0490505b90565b60095481565b60035481565b60006115cd82611abf565b80156116255750600a60008373ffffffffffffffffffffffffffffffffffffffff1673ffffffffffffffffffffffffffffffffffffffff16815260200190815260200160002060000160159054906101000a900460ff165b9050919050565b6000809054906101000a900473ffffffffffffffffffffffffffffffffffffffff1673ffffffffffffffffffffffffffffffffffffffff163373ffffffffffffffffffffffffffffffffffffffff1614151561168757600080fd5b6000809054906101000a900473ffffffffffffffffffffffffffffffffffffffff1673ffffffffffffffffffffffffffffffffffffffff16ff5b6000809054906101000a900473ffffffffffffffffffffffffffffffffffffffff1673ffffffffffffffffffffffffffffffffffffffff163373ffffffffffffffffffffffffffffffffffffffff1614151561171c57600080fd5b600660009054906101000a900460ff1615151561173857600080fd5b611740611586565b6009819055506001600660006101000a81548160ff021916908315150217905550426007819055507fb7152de35affc741a6b2355d37e9caf51fe847cacfccd414be5e15996ff7e6c66009546040518082815260200191505060405180910390a1565b6000809054906101000a900473ffffffffffffffffffffffffffffffffffffffff1681565b60085481565b6000806117da33610f03565b15156117e557600080fd5b600660009054906101000a900460ff1615151561180157600080fd5b600091505b8383905082101561194457838383818110151561181f57fe5b9050602002013573ffffffffffffffffffffffffffffffffffffffff16905061184781611abf565b151561185257600080fd5b61185b81611a11565b15151561186757600080fd5b7f1c5e7a37dd4095194684d8f835d2c81b686d64d685032055a7cd02edc7c49ed881604051808273ffffffffffffffffffffffffffffffffffffffff1673ffffffffffffffffffffffffffffffffffffffff16815260200191505060405180910390a16001600a60008373ffffffffffffffffffffffffffffffffffffffff1673ffffffffffffffffffffffffffffffffffffffff16815260200190815260200160002060000160146101000a81548160ff0219169083151502179055506005600081548092919060010191905055508180600101925050611806565b50505050565b6000809054906101000a900473ffffffffffffffffffffffffffffffffffffffff1673ffffffffffffffffffffffffffffffffffffffff163373ffffffffffffffffffffffffffffffffffffffff161415156119a557600080fd5b600660009054906101000a900460ff161515156119c157600080fd5b8060038190555050565b600660019054906101000a900460ff1681565b600b6020528060005260406000206000915054906101000a900473ffffffffffffffffffffffffffffffffffffffff1681565b6000611a1c82611abf565b8015611a745750600a60008373ffffffffffffffffffffffffffffffffffffffff1673ffffffffffffffffffffffffffffffffffffffff16815260200190815260200160002060000160149054906101000a900460ff165b9050919050565b60003073ffffffffffffffffffffffffffffffffffffffff1631905090565b60055481565b60006003546004541015611ab75760009050611abc565b600190505b90565b60008073ffffffffffffffffffffffffffffffffffffffff16600a60008473ffffffffffffffffffffffffffffffffffffffff1673ffffffffffffffffffffffffffffffffffffffff16815260200190815260200160002060000160009054906101000a900473ffffffffffffffffffffffffffffffffffffffff1673ffffffffffffffffffffffffffffffffffffffff1614159050919050565b60025481565b6000809054906101000a900473ffffffffffffffffffffffffffffffffffffffff1673ffffffffffffffffffffffffffffffffffffffff163373ffffffffffffffffffffffffffffffffffffffff16141515611bbb57600080fd5b600660009054906101000a900460ff16151515611bd757600080fd5b6002546009819055506001600660016101000a81548160ff0219169083151502179055506001600660006101000a81548160ff021916908315150217905550426007819055507faac5ae2dfd439bb6c2f88b2d8af5b285cfee7584ad0d13ae7c00c1226c7c4c7b60405160405180910390a1565b6000809054906101000a900473ffffffffffffffffffffffffffffffffffffffff1673ffffffffffffffffffffffffffffffffffffffff163373ffffffffffffffffffffffffffffffffffffffff16141515611ca657600080fd5b600073ffffffffffffffffffffffffffffffffffffffff168173ffffffffffffffffffffffffffffffffffffffff1614151515611ce257600080fd5b8073ffffffffffffffffffffffffffffffffffffffff166000809054906101000a900473ffffffffffffffffffffffffffffffffffffffff1673ffffffffffffffffffffffffffffffffffffffff167f8be0079c531659141344cd1fd0a4f28419497f9722a3daafe3b4186f6b6457e060405160405180910390a3806000806101000a81548173ffffffffffffffffffffffffffffffffffffffff021916908373ffffffffffffffffffffffffffffffffffffffff16021790555050565b6000809054906101000a900473ffffffffffffffffffffffffffffffffffffffff1673ffffffffffffffffffffffffffffffffffffffff163373ffffffffffffffffffffffffffffffffffffffff16141515611dfb57600080fd5b8073ffffffffffffffffffffffffffffffffffffffff16ff5b60025434141515611e2457600080fd5b600354600454101515611e3657600080fd5b611e3f33611abf565b151515611e4b57600080fd5b60046000815480929190600101919050555033600b6000600454815260200190815260200160002060006101000a81548173ffffffffffffffffffffffffffffffffffffffff021916908373ffffffffffffffffffffffffffffffffffffffff1602179055506060604051908101604052803373ffffffffffffffffffffffffffffffffffffffff16815260200160001515815260200160001515815250600a60003373ffffffffffffffffffffffffffffffffffffffff1673ffffffffffffffffffffffffffffffffffffffff16815260200190815260200160002060008201518160000160006101000a81548173ffffffffffffffffffffffffffffffffffffffff021916908373ffffffffffffffffffffffffffffffffffffffff16021790555060208201518160000160146101000a81548160ff02191690831515021790555060408201518160000160156101000a81548160ff021916908315150217905550905050565b815481835581811115611fdb57818360005260206000209182019101611fda9190611fe0565b5b505050565b61200291905b80821115611ffe576000816000905550600101611fe6565b5090565b905600a165627a7a72305820168f9b9b79dd894db7c53ad3cdf69814804eac83d6686bd21cd121cd66ba59690029a165627a7a72305820fca44b4a0e39f27eda7911d9e8f7f082d903a761bada192e9d00da3e3f40573b0029",
  "source": "pragma solidity 0.4.24;\n\nimport \"./zeppelin/lifecycle/Destructible.sol\";\nimport \"./blockparty/Conference.sol\";\n\ncontract MeetupGroup is Destructible {\n    // string public name;\n    // string public country;\n    // string public region;\n    // string public category;\n    // string public description;\n    bytes public logo;\n    uint public memberCount;\n\n    address[] public events;\n    mapping (address => bool) public members;\n\n    event CreateEvent(\n        address id, \n        address groupId, \n        address userId, \n        string name, \n        string description, \n        uint date, \n        bytes8 geohash, \n        uint limitOfParticipants,\n        uint deposit\n    );\n    event JoinGroup(address groupId, address userId, uint memberCount);\n    // event LeaveGroup(address groupId, address userId, uint memberCount);\n\n\n    /* Public functions */\n    /**\n     * @dev Constructor.\n     * @param _owner Address of the user that creates the group from factory contractto\n     * @param _logo IPFS link\n     \n     */\n    constructor (\n        address _owner,\n        // string _name,\n        // string _country,\n        // string _region,\n        // string _category,\n        // string _description,\n        bytes _logo\n    ) public {\n        require(_owner != 0x0, \"Owner needs to be a valid address\");\n        owner = _owner;\n\n        // if (bytes(_name).length != 0){\n        //     name = _name;\n        // } else {\n        //     name = \"Test\";\n        // }\n\n        // if (bytes(_country).length != 0){\n        //     country = _country;\n        // } else {\n        //     country = \"TestCountry\";\n        // }\n\n        // if (bytes(_region).length != 0){\n        //     region = _region;\n        // } else {\n        //     region = \"TestRegion\";\n        // }\n\n        // if (bytes(_category).length != 0){\n        //     category = _category;\n        // } else {\n        //     category = \"Tech\";\n        // }\n\n        // if (bytes(_description).length != 0){\n        //     description = _description;\n        // } else {\n        //     description = \"Test description\";\n        // }\n\n        if (_logo.length != 0){\n            logo = _logo;\n        } else {\n            logo = \"0x0\";\n        }\n\n        members[msg.sender] = true;\n        memberCount++;\n    }\n\n    /**\n     * @dev Creates an event = a Conference smart contract\n     * @param _name The name of the event\n     * @param _deposit The amount each participant deposits. The default is set to 0.02 Ether. The amount cannot be changed once deployed.\n     * @param _limitOfParticipants The number of participant. The default is set to 20. The number can be changed by the owner of the event.\n     * @param _coolingPeriod The period participants should withdraw their deposit after the event ends. After the cooling period, the event owner can claim the remining deposits.\n     * @param _description Desciption of the event\n     * @param _date Timestamp of the event\n     * @param _geohash Geohash of the event\n     */\n    function createEvent (\n        string _name,\n        uint256 _deposit,\n        uint _limitOfParticipants,\n        uint _coolingPeriod,\n        string _description,\n        uint _date,\n        bytes8 _geohash\n    ) public onlyOwner {\n        require(bytes(_name).length > 0, \"Name has to exist\");\n        require(_date > 0, \"Date has to exist\");\n        require(_geohash > 0, \"Geohash has to exist\");\n        address conference = new Conference(\n            msg.sender,\n            // _name,\n            _deposit,\n            _limitOfParticipants,\n            _coolingPeriod\n            // _description,\n            // _date,\n            // _geohash\n        );\n        events.push(conference);\n        emit CreateEvent(conference, this, msg.sender, _name, _description, _date, _geohash, _limitOfParticipants, _deposit);\n    }\n\n    /**\n     * @dev Adds a user to the meetup group\n     */\n    function joinGroup () public {\n        members[msg.sender] = true;\n        memberCount++;\n        emit JoinGroup(this, msg.sender, memberCount);\n    }\n\n    // /**\n    //  * @dev Deletes a user from the meetup group\n    //  */\n    // function leaveGroup () public {\n    //     participants[msg.sender] = false;\n    //     memberCount--;\n    //     emit LeaveGroup(this, msg.sender, memberCount);\n    // }\n}",
  "sourcePath": "/Users/dominikdnd/Desktop/ETHBerlin/meetup/meet-up/contracts/MeetupGroup.sol",
  "compiler": {
    "name": "solc",
    "version": "0.4.24+commit.e67f0147.Emscripten.clang"
  },
  "schemaVersion": "2.0.1",
  "updatedAt": "2018-09-09T05:32:31.690Z"
}